{
  "contractName": "Color",
  "abi": [
    {
      "inputs": [],
      "stateMutability": "nonpayable",
      "type": "constructor"
    },
    {
      "anonymous": false,
      "inputs": [
        {
          "indexed": true,
          "internalType": "address",
          "name": "_to",
          "type": "address"
        },
        {
          "indexed": true,
          "internalType": "uint256",
          "name": "_tokenId",
          "type": "uint256"
        },
        {
          "indexed": false,
          "internalType": "bytes32",
          "name": "_ipfsHash",
          "type": "bytes32"
        }
      ],
      "name": "Mint",
      "type": "event"
    },
    {
      "anonymous": false,
      "inputs": [
        {
          "indexed": true,
          "internalType": "address",
          "name": "_from",
          "type": "address"
        },
        {
          "indexed": true,
          "internalType": "address",
          "name": "_to",
          "type": "address"
        },
        {
          "indexed": true,
          "internalType": "uint256",
          "name": "_tokenId",
          "type": "uint256"
        }
      ],
      "name": "Transfer",
      "type": "event"
    },
    {
      "inputs": [
        {
          "internalType": "uint256",
          "name": "",
          "type": "uint256"
        }
      ],
      "name": "colors",
      "outputs": [
        {
          "internalType": "string",
          "name": "",
          "type": "string"
        }
      ],
      "stateMutability": "view",
      "type": "function",
      "constant": true
    },
    {
      "inputs": [],
      "name": "name",
      "outputs": [
        {
          "internalType": "string",
          "name": "",
          "type": "string"
        }
      ],
      "stateMutability": "view",
      "type": "function",
      "constant": true
    },
    {
      "inputs": [],
      "name": "symbol",
      "outputs": [
        {
          "internalType": "string",
          "name": "",
          "type": "string"
        }
      ],
      "stateMutability": "view",
      "type": "function",
      "constant": true
    },
    {
      "inputs": [
        {
          "internalType": "address",
          "name": "_to",
          "type": "address"
        },
        {
          "internalType": "bytes32",
          "name": "_ipfsHash",
          "type": "bytes32"
        }
      ],
      "name": "_mint",
      "outputs": [],
      "stateMutability": "nonpayable",
      "type": "function"
    },
    {
      "inputs": [
        {
          "internalType": "address",
          "name": "_to",
          "type": "address"
        },
        {
          "internalType": "uint256",
          "name": "_tokenId",
          "type": "uint256"
        }
      ],
      "name": "_transfer",
      "outputs": [
        {
          "internalType": "address",
          "name": "",
          "type": "address"
        }
      ],
      "stateMutability": "nonpayable",
      "type": "function"
    },
    {
      "inputs": [],
      "name": "totalSupply",
      "outputs": [
        {
          "internalType": "uint256",
          "name": "",
          "type": "uint256"
        }
      ],
      "stateMutability": "view",
      "type": "function",
      "constant": true
    },
    {
      "inputs": [],
      "name": "getBalance",
      "outputs": [
        {
          "internalType": "uint256",
          "name": "",
          "type": "uint256"
        }
      ],
      "stateMutability": "view",
      "type": "function",
      "constant": true
    },
    {
      "inputs": [
        {
          "internalType": "string",
          "name": "_color",
          "type": "string"
        }
      ],
      "name": "buy",
      "outputs": [],
      "stateMutability": "payable",
      "type": "function",
      "payable": true
    }
  ],
  "bytecode": "0x60806040526040518060400160405280600581526020017f436f6c6f720000000000000000000000000000000000000000000000000000008152506000908051906020019062000051929190620000bf565b506040518060400160405280600581526020017f434f4c4f52000000000000000000000000000000000000000000000000000000815250600190805190602001906200009f929190620000bf565b506611c37937e08000600355348015620000b857600080fd5b50620001d4565b828054620000cd906200016f565b90600052602060002090601f016020900481019282620000f157600085556200013d565b82601f106200010c57805160ff19168380011785556200013d565b828001600101855582156200013d579182015b828111156200013c5782518255916020019190600101906200011f565b5b5090506200014c919062000150565b5090565b5b808211156200016b57600081600090555060010162000151565b5090565b600060028204905060018216806200018857607f821691505b602082108114156200019f576200019e620001a5565b5b50919050565b7f4e487b7100000000000000000000000000000000000000000000000000000000600052602260045260246000fd5b610c8080620001e46000396000f3fe60806040526004361061007b5760003560e01c8063492cc7691161004e578063492cc7691461013e57806395d89b411461015a578063bd11f69d14610185578063c5169275146101c25761007b565b806306fdde031461008057806312065fe0146100ab57806318160ddd146100d65780634847a79c14610101575b600080fd5b34801561008c57600080fd5b506100956101eb565b6040516100a291906109dd565b60405180910390f35b3480156100b757600080fd5b506100c0610279565b6040516100cd91906109ff565b60405180910390f35b3480156100e257600080fd5b506100eb610281565b6040516100f891906109ff565b60405180910390f35b34801561010d57600080fd5b5061012860048036038101906101239190610843565b61028e565b60405161013591906109a7565b60405180910390f35b61015860048036038101906101539190610883565b6103b1565b005b34801561016657600080fd5b5061016f6104c7565b60405161017c91906109dd565b60405180910390f35b34801561019157600080fd5b506101ac60048036038101906101a791906108cc565b610555565b6040516101b991906109dd565b60405180910390f35b3480156101ce57600080fd5b506101e960048036038101906101e49190610803565b610601565b005b600080546101f890610b1f565b80601f016020809104026020016040519081016040528092919081815260200182805461022490610b1f565b80156102715780601f1061024657610100808354040283529160200191610271565b820191906000526020600020905b81548152906001019060200180831161025457829003601f168201915b505050505081565b600047905090565b6000600280549050905090565b60006004600083815260200190815260200160002060009054906101000a900473ffffffffffffffffffffffffffffffffffffffff1673ffffffffffffffffffffffffffffffffffffffff163373ffffffffffffffffffffffffffffffffffffffff16146102fb57600080fd5b826004600084815260200190815260200160002060006101000a81548173ffffffffffffffffffffffffffffffffffffffff021916908373ffffffffffffffffffffffffffffffffffffffff160217905550818373ffffffffffffffffffffffffffffffffffffffff163373ffffffffffffffffffffffffffffffffffffffff167fddf252ad1be2c89b69c2b068fc378daa952ba7f163c4a11628f55a4df523b3ef60405160405180910390a482905092915050565b3373ffffffffffffffffffffffffffffffffffffffff166108fc349081150290604051600060405180830381858888f193505050501580156103f7573d6000803e3d6000fd5b506005816040516104089190610990565b908152602001604051809103902060009054906101000a900460ff161561042e57600080fd5b6002819080600181540180825580915050600190039060005260206000200160009091909190915090805190602001906104699291906106b1565b5060006002805490509050610481338260001b610601565b61048b338261028e565b50600160058360405161049e9190610990565b908152602001604051809103902060006101000a81548160ff0219169083151502179055505050565b600180546104d490610b1f565b80601f016020809104026020016040519081016040528092919081815260200182805461050090610b1f565b801561054d5780601f106105225761010080835404028352916020019161054d565b820191906000526020600020905b81548152906001019060200180831161053057829003601f168201915b505050505081565b6002818154811061056557600080fd5b90600052602060002001600091509050805461058090610b1f565b80601f01602080910402602001604051908101604052809291908181526020018280546105ac90610b1f565b80156105f95780601f106105ce576101008083540402835291602001916105f9565b820191906000526020600020905b8154815290600101906020018083116105dc57829003601f168201915b505050505081565b60006002805490509050826004600083815260200190815260200160002060006101000a81548173ffffffffffffffffffffffffffffffffffffffff021916908373ffffffffffffffffffffffffffffffffffffffff160217905550808373ffffffffffffffffffffffffffffffffffffffff167f3dec94b8abc8f801eaade1616d3aadd3114b556a284267905e0a053b2df39892846040516106a491906109c2565b60405180910390a3505050565b8280546106bd90610b1f565b90600052602060002090601f0160209004810192826106df5760008555610726565b82601f106106f857805160ff1916838001178555610726565b82800160010185558215610726579182015b8281111561072557825182559160200191906001019061070a565b5b5090506107339190610737565b5090565b5b80821115610750576000816000905550600101610738565b5090565b600061076761076284610a3f565b610a1a565b90508281526020810184848401111561078357610782610be5565b5b61078e848285610add565b509392505050565b6000813590506107a581610c05565b92915050565b6000813590506107ba81610c1c565b92915050565b600082601f8301126107d5576107d4610be0565b5b81356107e5848260208601610754565b91505092915050565b6000813590506107fd81610c33565b92915050565b6000806040838503121561081a57610819610bef565b5b600061082885828601610796565b9250506020610839858286016107ab565b9150509250929050565b6000806040838503121561085a57610859610bef565b5b600061086885828601610796565b9250506020610879858286016107ee565b9150509250929050565b60006020828403121561089957610898610bef565b5b600082013567ffffffffffffffff8111156108b7576108b6610bea565b5b6108c3848285016107c0565b91505092915050565b6000602082840312156108e2576108e1610bef565b5b60006108f0848285016107ee565b91505092915050565b61090281610a97565b82525050565b61091181610aa9565b82525050565b600061092282610a70565b61092c8185610a7b565b935061093c818560208601610aec565b61094581610bf4565b840191505092915050565b600061095b82610a70565b6109658185610a8c565b9350610975818560208601610aec565b80840191505092915050565b61098a81610ad3565b82525050565b600061099c8284610950565b915081905092915050565b60006020820190506109bc60008301846108f9565b92915050565b60006020820190506109d76000830184610908565b92915050565b600060208201905081810360008301526109f78184610917565b905092915050565b6000602082019050610a146000830184610981565b92915050565b6000610a24610a35565b9050610a308282610b51565b919050565b6000604051905090565b600067ffffffffffffffff821115610a5a57610a59610bb1565b5b610a6382610bf4565b9050602081019050919050565b600081519050919050565b600082825260208201905092915050565b600081905092915050565b6000610aa282610ab3565b9050919050565b6000819050919050565b600073ffffffffffffffffffffffffffffffffffffffff82169050919050565b6000819050919050565b82818337600083830152505050565b60005b83811015610b0a578082015181840152602081019050610aef565b83811115610b19576000848401525b50505050565b60006002820490506001821680610b3757607f821691505b60208210811415610b4b57610b4a610b82565b5b50919050565b610b5a82610bf4565b810181811067ffffffffffffffff82111715610b7957610b78610bb1565b5b80604052505050565b7f4e487b7100000000000000000000000000000000000000000000000000000000600052602260045260246000fd5b7f4e487b7100000000000000000000000000000000000000000000000000000000600052604160045260246000fd5b600080fd5b600080fd5b600080fd5b600080fd5b6000601f19601f8301169050919050565b610c0e81610a97565b8114610c1957600080fd5b50565b610c2581610aa9565b8114610c3057600080fd5b50565b610c3c81610ad3565b8114610c4757600080fd5b5056fea26469706673582212200db0191f3a14833902ee01e29d5d0bb0004570172ba91c7349934bb6b7b06a2764736f6c63430008060033",
  "immutableReferences": {},
  "source": "// SPDX-License-Identifier: MIT\r\npragma solidity >=0.4.22 <0.9.0;\r\n\r\ncontract Color {\r\n    \r\n    string public name = \"Color\";\r\n    string public symbol = \"COLOR\";\r\n    string[] public colors;\r\n    uint sellingPrice = 5000000000000000;\r\n\r\n    event Mint(address indexed _to, uint256 indexed _tokenId, bytes32 _ipfsHash);\r\n    event Transfer(address indexed _from, address indexed _to, uint256 indexed _tokenId);\r\n\r\n    mapping(uint256 => address) internal idToOwner;\r\n    mapping(string => bool) _colorExists;\r\n    constructor () {\r\n\r\n    }\r\n\r\n    function _mint(address _to, bytes32 _ipfsHash) public {\r\n        uint256 _tokenId = colors.length;\r\n        idToOwner[_tokenId] = _to;\r\n        emit Mint(_to, _tokenId, _ipfsHash);\r\n    }\r\n\r\n    function _transfer(address _to, uint256 _tokenId) public returns (address){\r\n        require(msg.sender == idToOwner[_tokenId]);\r\n        idToOwner[_tokenId] = _to;\r\n        emit Transfer(msg.sender, _to, _tokenId);\r\n        return _to;\r\n    }\r\n\r\n    function totalSupply() public view returns(uint) {\r\n        return colors.length;\r\n    }\r\n\r\n    function getBalance() public view returns(uint)  {\r\n        return address(this).balance;\r\n    }\r\n\r\n\r\n    function buy (string memory _color) external payable {\r\n        payable(msg.sender).transfer(msg.value);\r\n        require(!_colorExists[_color]);\r\n        colors.push(_color);\r\n        uint _id = colors.length;\r\n        _mint(msg.sender, bytes32(_id));\r\n        _transfer(msg.sender, _id);\r\n        _colorExists[_color] = true;\r\n        \r\n    }\r\n}\r\n\r\n",
  "sourcePath": "C:/Users/Antonio Neto/Desktop/SelableColor/src/contracts/Color.sol",
  "compiler": {
    "name": "solc",
    "version": "0.8.6+commit.11564f7e.Emscripten.clang"
  },
  "schemaVersion": "3.4.1",
  "updatedAt": "2021-07-23T10:35:41.326Z",
  "networkType": "ethereum",
  "devdoc": {
    "kind": "dev",
    "methods": {},
    "version": 1
  },
  "userdoc": {
    "kind": "user",
    "methods": {},
    "version": 1
  }
}