{
  "contractName": "Obra",
  "abi": [
    {
      "inputs": [],
      "stateMutability": "nonpayable",
      "type": "constructor"
    },
    {
      "anonymous": false,
      "inputs": [
        {
          "indexed": true,
          "internalType": "address",
          "name": "owner",
          "type": "address"
        },
        {
          "indexed": true,
          "internalType": "address",
          "name": "approved",
          "type": "address"
        },
        {
          "indexed": true,
          "internalType": "uint256",
          "name": "tokenId",
          "type": "uint256"
        }
      ],
      "name": "Approval",
      "type": "event"
    },
    {
      "anonymous": false,
      "inputs": [
        {
          "indexed": true,
          "internalType": "address",
          "name": "owner",
          "type": "address"
        },
        {
          "indexed": true,
          "internalType": "address",
          "name": "operator",
          "type": "address"
        },
        {
          "indexed": false,
          "internalType": "bool",
          "name": "approved",
          "type": "bool"
        }
      ],
      "name": "ApprovalForAll",
      "type": "event"
    },
    {
      "anonymous": false,
      "inputs": [
        {
          "indexed": true,
          "internalType": "address",
          "name": "from",
          "type": "address"
        },
        {
          "indexed": true,
          "internalType": "address",
          "name": "to",
          "type": "address"
        },
        {
          "indexed": true,
          "internalType": "uint256",
          "name": "tokenId",
          "type": "uint256"
        }
      ],
      "name": "Transfer",
      "type": "event"
    },
    {
      "inputs": [
        {
          "internalType": "address",
          "name": "to",
          "type": "address"
        },
        {
          "internalType": "uint256",
          "name": "tokenId",
          "type": "uint256"
        }
      ],
      "name": "approve",
      "outputs": [],
      "stateMutability": "nonpayable",
      "type": "function"
    },
    {
      "inputs": [
        {
          "internalType": "address",
          "name": "owner",
          "type": "address"
        }
      ],
      "name": "balanceOf",
      "outputs": [
        {
          "internalType": "uint256",
          "name": "",
          "type": "uint256"
        }
      ],
      "stateMutability": "view",
      "type": "function",
      "constant": true
    },
    {
      "inputs": [
        {
          "internalType": "uint256",
          "name": "",
          "type": "uint256"
        }
      ],
      "name": "dadosDasObras",
      "outputs": [
        {
          "internalType": "string",
          "name": "nomeDoAutor",
          "type": "string"
        },
        {
          "internalType": "uint64",
          "name": "cpfDoAutor",
          "type": "uint64"
        },
        {
          "internalType": "string",
          "name": "nomeArtisticoDoAutor",
          "type": "string"
        },
        {
          "internalType": "string",
          "name": "nomeDoTitular",
          "type": "string"
        },
        {
          "internalType": "uint64",
          "name": "cpfDoTitular",
          "type": "uint64"
        },
        {
          "internalType": "string",
          "name": "nomeDaObra",
          "type": "string"
        },
        {
          "internalType": "string",
          "name": "tipoDeObra",
          "type": "string"
        },
        {
          "internalType": "string",
          "name": "descricao",
          "type": "string"
        }
      ],
      "stateMutability": "view",
      "type": "function",
      "constant": true
    },
    {
      "inputs": [
        {
          "internalType": "uint256",
          "name": "tokenId",
          "type": "uint256"
        }
      ],
      "name": "getApproved",
      "outputs": [
        {
          "internalType": "address",
          "name": "",
          "type": "address"
        }
      ],
      "stateMutability": "view",
      "type": "function",
      "constant": true
    },
    {
      "inputs": [
        {
          "internalType": "address",
          "name": "owner",
          "type": "address"
        },
        {
          "internalType": "address",
          "name": "operator",
          "type": "address"
        }
      ],
      "name": "isApprovedForAll",
      "outputs": [
        {
          "internalType": "bool",
          "name": "",
          "type": "bool"
        }
      ],
      "stateMutability": "view",
      "type": "function",
      "constant": true
    },
    {
      "inputs": [],
      "name": "name",
      "outputs": [
        {
          "internalType": "string",
          "name": "",
          "type": "string"
        }
      ],
      "stateMutability": "view",
      "type": "function",
      "constant": true
    },
    {
      "inputs": [
        {
          "internalType": "uint256",
          "name": "tokenId",
          "type": "uint256"
        }
      ],
      "name": "ownerOf",
      "outputs": [
        {
          "internalType": "address",
          "name": "",
          "type": "address"
        }
      ],
      "stateMutability": "view",
      "type": "function",
      "constant": true
    },
    {
      "inputs": [
        {
          "internalType": "address",
          "name": "from",
          "type": "address"
        },
        {
          "internalType": "address",
          "name": "to",
          "type": "address"
        },
        {
          "internalType": "uint256",
          "name": "tokenId",
          "type": "uint256"
        }
      ],
      "name": "safeTransferFrom",
      "outputs": [],
      "stateMutability": "nonpayable",
      "type": "function"
    },
    {
      "inputs": [
        {
          "internalType": "address",
          "name": "from",
          "type": "address"
        },
        {
          "internalType": "address",
          "name": "to",
          "type": "address"
        },
        {
          "internalType": "uint256",
          "name": "tokenId",
          "type": "uint256"
        },
        {
          "internalType": "bytes",
          "name": "_data",
          "type": "bytes"
        }
      ],
      "name": "safeTransferFrom",
      "outputs": [],
      "stateMutability": "nonpayable",
      "type": "function"
    },
    {
      "inputs": [
        {
          "internalType": "address",
          "name": "operator",
          "type": "address"
        },
        {
          "internalType": "bool",
          "name": "approved",
          "type": "bool"
        }
      ],
      "name": "setApprovalForAll",
      "outputs": [],
      "stateMutability": "nonpayable",
      "type": "function"
    },
    {
      "inputs": [
        {
          "internalType": "bytes4",
          "name": "interfaceId",
          "type": "bytes4"
        }
      ],
      "name": "supportsInterface",
      "outputs": [
        {
          "internalType": "bool",
          "name": "",
          "type": "bool"
        }
      ],
      "stateMutability": "view",
      "type": "function",
      "constant": true
    },
    {
      "inputs": [],
      "name": "symbol",
      "outputs": [
        {
          "internalType": "string",
          "name": "",
          "type": "string"
        }
      ],
      "stateMutability": "view",
      "type": "function",
      "constant": true
    },
    {
      "inputs": [
        {
          "internalType": "uint256",
          "name": "tokenId",
          "type": "uint256"
        }
      ],
      "name": "tokenURI",
      "outputs": [
        {
          "internalType": "string",
          "name": "",
          "type": "string"
        }
      ],
      "stateMutability": "view",
      "type": "function",
      "constant": true
    },
    {
      "inputs": [
        {
          "internalType": "address",
          "name": "from",
          "type": "address"
        },
        {
          "internalType": "address",
          "name": "to",
          "type": "address"
        },
        {
          "internalType": "uint256",
          "name": "tokenId",
          "type": "uint256"
        }
      ],
      "name": "transferFrom",
      "outputs": [],
      "stateMutability": "nonpayable",
      "type": "function"
    },
    {
      "inputs": [
        {
          "internalType": "uint256",
          "name": "_id",
          "type": "uint256"
        }
      ],
      "name": "getDadosDaObra",
      "outputs": [
        {
          "components": [
            {
              "internalType": "string",
              "name": "nomeDoAutor",
              "type": "string"
            },
            {
              "internalType": "uint64",
              "name": "cpfDoAutor",
              "type": "uint64"
            },
            {
              "internalType": "string",
              "name": "nomeArtisticoDoAutor",
              "type": "string"
            },
            {
              "internalType": "string[]",
              "name": "coAutores",
              "type": "string[]"
            },
            {
              "internalType": "uint64[]",
              "name": "cpfDoCoautor",
              "type": "uint64[]"
            },
            {
              "internalType": "string",
              "name": "nomeDoTitular",
              "type": "string"
            },
            {
              "internalType": "uint64",
              "name": "cpfDoTitular",
              "type": "uint64"
            },
            {
              "internalType": "string",
              "name": "nomeDaObra",
              "type": "string"
            },
            {
              "internalType": "string",
              "name": "tipoDeObra",
              "type": "string"
            },
            {
              "internalType": "string",
              "name": "descricao",
              "type": "string"
            }
          ],
          "internalType": "struct Obra.dadosDaObra",
          "name": "",
          "type": "tuple"
        }
      ],
      "stateMutability": "view",
      "type": "function",
      "constant": true
    },
    {
      "inputs": [
        {
          "internalType": "string",
          "name": "_nomeDoAutor",
          "type": "string"
        },
        {
          "internalType": "uint64",
          "name": "_cpfDoAutor",
          "type": "uint64"
        },
        {
          "internalType": "string",
          "name": "_nomeArtisticoDoAutor",
          "type": "string"
        },
        {
          "internalType": "string[]",
          "name": "_coAutores",
          "type": "string[]"
        },
        {
          "internalType": "uint64[]",
          "name": "_cpfDoCoautor",
          "type": "uint64[]"
        },
        {
          "internalType": "string",
          "name": "_nomeDoTitular",
          "type": "string"
        },
        {
          "internalType": "uint64",
          "name": "_cpfDoTitular",
          "type": "uint64"
        },
        {
          "internalType": "string",
          "name": "_nomeDaObra",
          "type": "string"
        },
        {
          "internalType": "string",
          "name": "_tipoDeObra",
          "type": "string"
        },
        {
          "internalType": "string",
          "name": "_descricao",
          "type": "string"
        }
      ],
      "name": "createDadosDaObra",
      "outputs": [
        {
          "components": [
            {
              "internalType": "string",
              "name": "nomeDoAutor",
              "type": "string"
            },
            {
              "internalType": "uint64",
              "name": "cpfDoAutor",
              "type": "uint64"
            },
            {
              "internalType": "string",
              "name": "nomeArtisticoDoAutor",
              "type": "string"
            },
            {
              "internalType": "string[]",
              "name": "coAutores",
              "type": "string[]"
            },
            {
              "internalType": "uint64[]",
              "name": "cpfDoCoautor",
              "type": "uint64[]"
            },
            {
              "internalType": "string",
              "name": "nomeDoTitular",
              "type": "string"
            },
            {
              "internalType": "uint64",
              "name": "cpfDoTitular",
              "type": "uint64"
            },
            {
              "internalType": "string",
              "name": "nomeDaObra",
              "type": "string"
            },
            {
              "internalType": "string",
              "name": "tipoDeObra",
              "type": "string"
            },
            {
              "internalType": "string",
              "name": "descricao",
              "type": "string"
            }
          ],
          "internalType": "struct Obra.dadosDaObra",
          "name": "",
          "type": "tuple"
        }
      ],
      "stateMutability": "nonpayable",
      "type": "function"
    },
    {
      "inputs": [
        {
          "components": [
            {
              "internalType": "string",
              "name": "nomeDoAutor",
              "type": "string"
            },
            {
              "internalType": "uint64",
              "name": "cpfDoAutor",
              "type": "uint64"
            },
            {
              "internalType": "string",
              "name": "nomeArtisticoDoAutor",
              "type": "string"
            },
            {
              "internalType": "string[]",
              "name": "coAutores",
              "type": "string[]"
            },
            {
              "internalType": "uint64[]",
              "name": "cpfDoCoautor",
              "type": "uint64[]"
            },
            {
              "internalType": "string",
              "name": "nomeDoTitular",
              "type": "string"
            },
            {
              "internalType": "uint64",
              "name": "cpfDoTitular",
              "type": "uint64"
            },
            {
              "internalType": "string",
              "name": "nomeDaObra",
              "type": "string"
            },
            {
              "internalType": "string",
              "name": "tipoDeObra",
              "type": "string"
            },
            {
              "internalType": "string",
              "name": "descricao",
              "type": "string"
            }
          ],
          "internalType": "struct Obra.dadosDaObra",
          "name": "_dados",
          "type": "tuple"
        },
        {
          "internalType": "uint256",
          "name": "_id",
          "type": "uint256"
        }
      ],
      "name": "mint",
      "outputs": [],
      "stateMutability": "nonpayable",
      "type": "function"
    }
  ],
  "bytecode": "0x60806040523480156200001157600080fd5b506040518060400160405280600481526020017f4f627261000000000000000000000000000000000000000000000000000000008152506040518060400160405280600481526020017f4f42524100000000000000000000000000000000000000000000000000000000815250816000908051906020019062000096929190620000b8565b508060019080519060200190620000af929190620000b8565b505050620001cd565b828054620000c69062000168565b90600052602060002090601f016020900481019282620000ea576000855562000136565b82601f106200010557805160ff191683800117855562000136565b8280016001018555821562000136579182015b828111156200013557825182559160200191906001019062000118565b5b50905062000145919062000149565b5090565b5b80821115620001645760008160009055506001016200014a565b5090565b600060028204905060018216806200018157607f821691505b602082108114156200019857620001976200019e565b5b50919050565b7f4e487b7100000000000000000000000000000000000000000000000000000000600052602260045260246000fd5b61464680620001dd6000396000f3fe608060405234801561001057600080fd5b506004361061010b5760003560e01c806370a08231116100a2578063b88d4fde11610071578063b88d4fde146102e3578063c87b56dd146102ff578063d480ef921461032f578063e985e9c51461035f578063f94e5e701461038f5761010b565b806370a082311461024957806395d89b4114610279578063a22cb46514610297578063b625c17b146102b35761010b565b80631122b015116100de5780631122b015146101aa57806323b872dd146101e157806342842e0e146101fd5780636352211e146102195761010b565b806301ffc9a71461011057806306fdde0314610140578063081812fc1461015e578063095ea7b31461018e575b600080fd5b61012a6004803603810190610125919061316d565b6103ab565b60405161013791906139b5565b60405180910390f35b61014861048d565b60405161015591906139d0565b60405180910390f35b610178600480360381019061017391906133e2565b61051f565b604051610185919061394e565b60405180910390f35b6101a860048036038101906101a3919061312d565b6105a4565b005b6101c460048036038101906101bf91906133e2565b6106bc565b6040516101d89897969594939291906139f2565b60405180910390f35b6101fb60048036038101906101f69190613017565b610a6c565b005b61021760048036038101906102129190613017565b610acc565b005b610233600480360381019061022e91906133e2565b610aec565b604051610240919061394e565b60405180910390f35b610263600480360381019061025e9190612faa565b610b9e565b6040516102709190613c7c565b60405180910390f35b610281610c56565b60405161028e91906139d0565b60405180910390f35b6102b160048036038101906102ac91906130ed565b610ce8565b005b6102cd60048036038101906102c891906131c7565b610e69565b6040516102da9190613c5a565b60405180910390f35b6102fd60048036038101906102f8919061306a565b6115b7565b005b610319600480360381019061031491906133e2565b611619565b60405161032691906139d0565b60405180910390f35b610349600480360381019061034491906133e2565b6116c0565b6040516103569190613c5a565b60405180910390f35b61037960048036038101906103749190612fd7565b611c23565b60405161038691906139b5565b60405180910390f35b6103a960048036038101906103a49190613386565b611cb7565b005b60007f80ac58cd000000000000000000000000000000000000000000000000000000007bffffffffffffffffffffffffffffffffffffffffffffffffffffffff1916827bffffffffffffffffffffffffffffffffffffffffffffffffffffffff1916148061047657507f5b5e139f000000000000000000000000000000000000000000000000000000007bffffffffffffffffffffffffffffffffffffffffffffffffffffffff1916827bffffffffffffffffffffffffffffffffffffffffffffffffffffffff1916145b80610486575061048582611e70565b5b9050919050565b60606000805461049c90613fc1565b80601f01602080910402602001604051908101604052809291908181526020018280546104c890613fc1565b80156105155780601f106104ea57610100808354040283529160200191610515565b820191906000526020600020905b8154815290600101906020018083116104f857829003601f168201915b5050505050905090565b600061052a82611eda565b610569576040517f08c379a000000000000000000000000000000000000000000000000000000000815260040161056090613bba565b60405180910390fd5b6004600083815260200190815260200160002060009054906101000a900473ffffffffffffffffffffffffffffffffffffffff169050919050565b60006105af82610aec565b90508073ffffffffffffffffffffffffffffffffffffffff168373ffffffffffffffffffffffffffffffffffffffff161415610620576040517f08c379a000000000000000000000000000000000000000000000000000000000815260040161061790613c1a565b60405180910390fd5b8073ffffffffffffffffffffffffffffffffffffffff1661063f611f46565b73ffffffffffffffffffffffffffffffffffffffff16148061066e575061066d81610668611f46565b611c23565b5b6106ad576040517f08c379a00000000000000000000000000000000000000000000000000000000081526004016106a490613b3a565b60405180910390fd5b6106b78383611f4e565b505050565b600681815481106106cc57600080fd5b90600052602060002090600a02016000915090508060000180546106ef90613fc1565b80601f016020809104026020016040519081016040528092919081815260200182805461071b90613fc1565b80156107685780601f1061073d57610100808354040283529160200191610768565b820191906000526020600020905b81548152906001019060200180831161074b57829003601f168201915b5050505050908060010160009054906101000a900467ffffffffffffffff169080600201805461079790613fc1565b80601f01602080910402602001604051908101604052809291908181526020018280546107c390613fc1565b80156108105780601f106107e557610100808354040283529160200191610810565b820191906000526020600020905b8154815290600101906020018083116107f357829003601f168201915b50505050509080600501805461082590613fc1565b80601f016020809104026020016040519081016040528092919081815260200182805461085190613fc1565b801561089e5780601f106108735761010080835404028352916020019161089e565b820191906000526020600020905b81548152906001019060200180831161088157829003601f168201915b5050505050908060060160009054906101000a900467ffffffffffffffff16908060070180546108cd90613fc1565b80601f01602080910402602001604051908101604052809291908181526020018280546108f990613fc1565b80156109465780601f1061091b57610100808354040283529160200191610946565b820191906000526020600020905b81548152906001019060200180831161092957829003601f168201915b50505050509080600801805461095b90613fc1565b80601f016020809104026020016040519081016040528092919081815260200182805461098790613fc1565b80156109d45780601f106109a9576101008083540402835291602001916109d4565b820191906000526020600020905b8154815290600101906020018083116109b757829003601f168201915b5050505050908060090180546109e990613fc1565b80601f0160208091040260200160405190810160405280929190818152602001828054610a1590613fc1565b8015610a625780601f10610a3757610100808354040283529160200191610a62565b820191906000526020600020905b815481529060010190602001808311610a4557829003601f168201915b5050505050905088565b610a7d610a77611f46565b82612007565b610abc576040517f08c379a0000000000000000000000000000000000000000000000000000000008152600401610ab390613c3a565b60405180910390fd5b610ac78383836120e5565b505050565b610ae7838383604051806020016040528060008152506115b7565b505050565b6000806002600084815260200190815260200160002060009054906101000a900473ffffffffffffffffffffffffffffffffffffffff169050600073ffffffffffffffffffffffffffffffffffffffff168173ffffffffffffffffffffffffffffffffffffffff161415610b95576040517f08c379a0000000000000000000000000000000000000000000000000000000008152600401610b8c90613b7a565b60405180910390fd5b80915050919050565b60008073ffffffffffffffffffffffffffffffffffffffff168273ffffffffffffffffffffffffffffffffffffffff161415610c0f576040517f08c379a0000000000000000000000000000000000000000000000000000000008152600401610c0690613b5a565b60405180910390fd5b600360008373ffffffffffffffffffffffffffffffffffffffff1673ffffffffffffffffffffffffffffffffffffffff168152602001908152602001600020549050919050565b606060018054610c6590613fc1565b80601f0160208091040260200160405190810160405280929190818152602001828054610c9190613fc1565b8015610cde5780601f10610cb357610100808354040283529160200191610cde565b820191906000526020600020905b815481529060010190602001808311610cc157829003601f168201915b5050505050905090565b610cf0611f46565b73ffffffffffffffffffffffffffffffffffffffff168273ffffffffffffffffffffffffffffffffffffffff161415610d5e576040517f08c379a0000000000000000000000000000000000000000000000000000000008152600401610d5590613afa565b60405180910390fd5b8060056000610d6b611f46565b73ffffffffffffffffffffffffffffffffffffffff1673ffffffffffffffffffffffffffffffffffffffff16815260200190815260200160002060008473ffffffffffffffffffffffffffffffffffffffff1673ffffffffffffffffffffffffffffffffffffffff16815260200190815260200160002060006101000a81548160ff0219169083151502179055508173ffffffffffffffffffffffffffffffffffffffff16610e18611f46565b73ffffffffffffffffffffffffffffffffffffffff167f17307eab39ab6107e8899845ad3d59bd9653f200f220920489ca2b5937696c3183604051610e5d91906139b5565b60405180910390a35050565b610e71612892565b60066040518061014001604052808d81526020018c67ffffffffffffffff1681526020018b81526020018a81526020018981526020018881526020018767ffffffffffffffff1681526020018681526020018581526020018481525090806001815401808255809150506001900390600052602060002090600a02016000909190919091506000820151816000019080519060200190610f129291906128f9565b5060208201518160010160006101000a81548167ffffffffffffffff021916908367ffffffffffffffff1602179055506040820151816002019080519060200190610f5e9291906128f9565b506060820151816003019080519060200190610f7b92919061297f565b506080820151816004019080519060200190610f989291906129df565b5060a0820151816005019080519060200190610fb59291906128f9565b5060c08201518160060160006101000a81548167ffffffffffffffff021916908367ffffffffffffffff16021790555060e08201518160070190805190602001906110019291906128f9565b5061010082015181600801908051906020019061101f9291906128f9565b5061012082015181600901908051906020019061103d9291906128f9565b50505060068080549050815481106110585761105761412b565b5b90600052602060002090600a02016040518061014001604052908160008201805461108290613fc1565b80601f01602080910402602001604051908101604052809291908181526020018280546110ae90613fc1565b80156110fb5780601f106110d0576101008083540402835291602001916110fb565b820191906000526020600020905b8154815290600101906020018083116110de57829003601f168201915b505050505081526020016001820160009054906101000a900467ffffffffffffffff1667ffffffffffffffff1667ffffffffffffffff16815260200160028201805461114690613fc1565b80601f016020809104026020016040519081016040528092919081815260200182805461117290613fc1565b80156111bf5780601f10611194576101008083540402835291602001916111bf565b820191906000526020600020905b8154815290600101906020018083116111a257829003601f168201915b5050505050815260200160038201805480602002602001604051908101604052809291908181526020016000905b8282101561129957838290600052602060002001805461120c90613fc1565b80601f016020809104026020016040519081016040528092919081815260200182805461123890613fc1565b80156112855780601f1061125a57610100808354040283529160200191611285565b820191906000526020600020905b81548152906001019060200180831161126857829003601f168201915b5050505050815260200190600101906111ed565b5050505081526020016004820180548060200260200160405190810160405280929190818152602001828054801561132457602002820191906000526020600020906000905b82829054906101000a900467ffffffffffffffff1667ffffffffffffffff16815260200190600801906020826007010492830192600103820291508084116112df5790505b5050505050815260200160058201805461133d90613fc1565b80601f016020809104026020016040519081016040528092919081815260200182805461136990613fc1565b80156113b65780601f1061138b576101008083540402835291602001916113b6565b820191906000526020600020905b81548152906001019060200180831161139957829003601f168201915b505050505081526020016006820160009054906101000a900467ffffffffffffffff1667ffffffffffffffff1667ffffffffffffffff16815260200160078201805461140190613fc1565b80601f016020809104026020016040519081016040528092919081815260200182805461142d90613fc1565b801561147a5780601f1061144f5761010080835404028352916020019161147a565b820191906000526020600020905b81548152906001019060200180831161145d57829003601f168201915b5050505050815260200160088201805461149390613fc1565b80601f01602080910402602001604051908101604052809291908181526020018280546114bf90613fc1565b801561150c5780601f106114e15761010080835404028352916020019161150c565b820191906000526020600020905b8154815290600101906020018083116114ef57829003601f168201915b5050505050815260200160098201805461152590613fc1565b80601f016020809104026020016040519081016040528092919081815260200182805461155190613fc1565b801561159e5780601f106115735761010080835404028352916020019161159e565b820191906000526020600020905b81548152906001019060200180831161158157829003601f168201915b50505050508152505090509a9950505050505050505050565b6115c86115c2611f46565b83612007565b611607576040517f08c379a00000000000000000000000000000000000000000000000000000000081526004016115fe90613c3a565b60405180910390fd5b61161384848484612341565b50505050565b606061162482611eda565b611663576040517f08c379a000000000000000000000000000000000000000000000000000000000815260040161165a90613bfa565b60405180910390fd5b600061166d61239d565b9050600081511161168d57604051806020016040528060008152506116b8565b80611697846123b4565b6040516020016116a892919061392a565b6040516020818303038152906040525b915050919050565b6116c8612892565b60076000838152602001908152602001600020604051806101400160405290816000820180546116f790613fc1565b80601f016020809104026020016040519081016040528092919081815260200182805461172390613fc1565b80156117705780601f1061174557610100808354040283529160200191611770565b820191906000526020600020905b81548152906001019060200180831161175357829003601f168201915b505050505081526020016001820160009054906101000a900467ffffffffffffffff1667ffffffffffffffff1667ffffffffffffffff1681526020016002820180546117bb90613fc1565b80601f01602080910402602001604051908101604052809291908181526020018280546117e790613fc1565b80156118345780601f1061180957610100808354040283529160200191611834565b820191906000526020600020905b81548152906001019060200180831161181757829003601f168201915b5050505050815260200160038201805480602002602001604051908101604052809291908181526020016000905b8282101561190e57838290600052602060002001805461188190613fc1565b80601f01602080910402602001604051908101604052809291908181526020018280546118ad90613fc1565b80156118fa5780601f106118cf576101008083540402835291602001916118fa565b820191906000526020600020905b8154815290600101906020018083116118dd57829003601f168201915b505050505081526020019060010190611862565b5050505081526020016004820180548060200260200160405190810160405280929190818152602001828054801561199957602002820191906000526020600020906000905b82829054906101000a900467ffffffffffffffff1667ffffffffffffffff16815260200190600801906020826007010492830192600103820291508084116119545790505b505050505081526020016005820180546119b290613fc1565b80601f01602080910402602001604051908101604052809291908181526020018280546119de90613fc1565b8015611a2b5780601f10611a0057610100808354040283529160200191611a2b565b820191906000526020600020905b815481529060010190602001808311611a0e57829003601f168201915b505050505081526020016006820160009054906101000a900467ffffffffffffffff1667ffffffffffffffff1667ffffffffffffffff168152602001600782018054611a7690613fc1565b80601f0160208091040260200160405190810160405280929190818152602001828054611aa290613fc1565b8015611aef5780601f10611ac457610100808354040283529160200191611aef565b820191906000526020600020905b815481529060010190602001808311611ad257829003601f168201915b50505050508152602001600882018054611b0890613fc1565b80601f0160208091040260200160405190810160405280929190818152602001828054611b3490613fc1565b8015611b815780601f10611b5657610100808354040283529160200191611b81565b820191906000526020600020905b815481529060010190602001808311611b6457829003601f168201915b50505050508152602001600982018054611b9a90613fc1565b80601f0160208091040260200160405190810160405280929190818152602001828054611bc690613fc1565b8015611c135780601f10611be857610100808354040283529160200191611c13565b820191906000526020600020905b815481529060010190602001808311611bf657829003601f168201915b5050505050815250509050919050565b6000600560008473ffffffffffffffffffffffffffffffffffffffff1673ffffffffffffffffffffffffffffffffffffffff16815260200190815260200160002060008373ffffffffffffffffffffffffffffffffffffffff1673ffffffffffffffffffffffffffffffffffffffff16815260200190815260200160002060009054906101000a900460ff16905092915050565b80600860003373ffffffffffffffffffffffffffffffffffffffff1673ffffffffffffffffffffffffffffffffffffffff168152602001908152602001600020541415611d0357600080fd5b81600760008381526020019081526020016000206000820151816000019080519060200190611d339291906128f9565b5060208201518160010160006101000a81548167ffffffffffffffff021916908367ffffffffffffffff1602179055506040820151816002019080519060200190611d7f9291906128f9565b506060820151816003019080519060200190611d9c92919061297f565b506080820151816004019080519060200190611db99291906129df565b5060a0820151816005019080519060200190611dd69291906128f9565b5060c08201518160060160006101000a81548167ffffffffffffffff021916908367ffffffffffffffff16021790555060e0820151816007019080519060200190611e229291906128f9565b50610100820151816008019080519060200190611e409291906128f9565b50610120820151816009019080519060200190611e5e9291906128f9565b50905050611e6c3382612515565b5050565b60007f01ffc9a7000000000000000000000000000000000000000000000000000000007bffffffffffffffffffffffffffffffffffffffffffffffffffffffff1916827bffffffffffffffffffffffffffffffffffffffffffffffffffffffff1916149050919050565b60008073ffffffffffffffffffffffffffffffffffffffff166002600084815260200190815260200160002060009054906101000a900473ffffffffffffffffffffffffffffffffffffffff1673ffffffffffffffffffffffffffffffffffffffff1614159050919050565b600033905090565b816004600083815260200190815260200160002060006101000a81548173ffffffffffffffffffffffffffffffffffffffff021916908373ffffffffffffffffffffffffffffffffffffffff160217905550808273ffffffffffffffffffffffffffffffffffffffff16611fc183610aec565b73ffffffffffffffffffffffffffffffffffffffff167f8c5be1e5ebec7d5bd14f71427d1e84f3dd0314c0f7b2291e5b200ac8c7c3b92560405160405180910390a45050565b600061201282611eda565b612051576040517f08c379a000000000000000000000000000000000000000000000000000000000815260040161204890613b1a565b60405180910390fd5b600061205c83610aec565b90508073ffffffffffffffffffffffffffffffffffffffff168473ffffffffffffffffffffffffffffffffffffffff1614806120cb57508373ffffffffffffffffffffffffffffffffffffffff166120b38461051f565b73ffffffffffffffffffffffffffffffffffffffff16145b806120dc57506120db8185611c23565b5b91505092915050565b8273ffffffffffffffffffffffffffffffffffffffff1661210582610aec565b73ffffffffffffffffffffffffffffffffffffffff161461215b576040517f08c379a000000000000000000000000000000000000000000000000000000000815260040161215290613bda565b60405180910390fd5b600073ffffffffffffffffffffffffffffffffffffffff168273ffffffffffffffffffffffffffffffffffffffff1614156121cb576040517f08c379a00000000000000000000000000000000000000000000000000000000081526004016121c290613ada565b60405180910390fd5b6121d68383836126e3565b6121e1600082611f4e565b6001600360008573ffffffffffffffffffffffffffffffffffffffff1673ffffffffffffffffffffffffffffffffffffffff16815260200190815260200160002060008282546122319190613ec3565b925050819055506001600360008473ffffffffffffffffffffffffffffffffffffffff1673ffffffffffffffffffffffffffffffffffffffff16815260200190815260200160002060008282546122889190613e3c565b92505081905550816002600083815260200190815260200160002060006101000a81548173ffffffffffffffffffffffffffffffffffffffff021916908373ffffffffffffffffffffffffffffffffffffffff160217905550808273ffffffffffffffffffffffffffffffffffffffff168473ffffffffffffffffffffffffffffffffffffffff167fddf252ad1be2c89b69c2b068fc378daa952ba7f163c4a11628f55a4df523b3ef60405160405180910390a4505050565b61234c8484846120e5565b612358848484846126e8565b612397576040517f08c379a000000000000000000000000000000000000000000000000000000000815260040161238e90613a9a565b60405180910390fd5b50505050565b606060405180602001604052806000815250905090565b606060008214156123fc576040518060400160405280600181526020017f30000000000000000000000000000000000000000000000000000000000000008152509050612510565b600082905060005b6000821461242e57808061241790614024565b915050600a826124279190613e92565b9150612404565b60008167ffffffffffffffff81111561244a5761244961415a565b5b6040519080825280601f01601f19166020018201604052801561247c5781602001600182028036833780820191505090505b5090505b60008514612509576001826124959190613ec3565b9150600a856124a4919061406d565b60306124b09190613e3c565b60f81b8183815181106124c6576124c561412b565b5b60200101907effffffffffffffffffffffffffffffffffffffffffffffffffffffffffffff1916908160001a905350600a856125029190613e92565b9450612480565b8093505050505b919050565b600073ffffffffffffffffffffffffffffffffffffffff168273ffffffffffffffffffffffffffffffffffffffff161415612585576040517f08c379a000000000000000000000000000000000000000000000000000000000815260040161257c90613b9a565b60405180910390fd5b61258e81611eda565b156125ce576040517f08c379a00000000000000000000000000000000000000000000000000000000081526004016125c590613aba565b60405180910390fd5b6125da600083836126e3565b6001600360008473ffffffffffffffffffffffffffffffffffffffff1673ffffffffffffffffffffffffffffffffffffffff168152602001908152602001600020600082825461262a9190613e3c565b92505081905550816002600083815260200190815260200160002060006101000a81548173ffffffffffffffffffffffffffffffffffffffff021916908373ffffffffffffffffffffffffffffffffffffffff160217905550808273ffffffffffffffffffffffffffffffffffffffff16600073ffffffffffffffffffffffffffffffffffffffff167fddf252ad1be2c89b69c2b068fc378daa952ba7f163c4a11628f55a4df523b3ef60405160405180910390a45050565b505050565b60006127098473ffffffffffffffffffffffffffffffffffffffff1661287f565b15612872578373ffffffffffffffffffffffffffffffffffffffff1663150b7a02612732611f46565b8786866040518563ffffffff1660e01b81526004016127549493929190613969565b602060405180830381600087803b15801561276e57600080fd5b505af192505050801561279f57506040513d601f19601f8201168201806040525081019061279c919061319a565b60015b612822573d80600081146127cf576040519150601f19603f3d011682016040523d82523d6000602084013e6127d4565b606091505b5060008151141561281a576040517f08c379a000000000000000000000000000000000000000000000000000000000815260040161281190613a9a565b60405180910390fd5b805181602001fd5b63150b7a0260e01b7bffffffffffffffffffffffffffffffffffffffffffffffffffffffff1916817bffffffffffffffffffffffffffffffffffffffffffffffffffffffff191614915050612877565b600190505b949350505050565b600080823b905060008111915050919050565b60405180610140016040528060608152602001600067ffffffffffffffff16815260200160608152602001606081526020016060815260200160608152602001600067ffffffffffffffff1681526020016060815260200160608152602001606081525090565b82805461290590613fc1565b90600052602060002090601f016020900481019282612927576000855561296e565b82601f1061294057805160ff191683800117855561296e565b8280016001018555821561296e579182015b8281111561296d578251825591602001919060010190612952565b5b50905061297b9190612a9b565b5090565b8280548282559060005260206000209081019282156129ce579160200282015b828111156129cd5782518290805190602001906129bd9291906128f9565b509160200191906001019061299f565b5b5090506129db9190612ab8565b5090565b82805482825590600052602060002090600301600490048101928215612a8a5791602002820160005b83821115612a5457835183826101000a81548167ffffffffffffffff021916908367ffffffffffffffff1602179055509260200192600801602081600701049283019260010302612a08565b8015612a885782816101000a81549067ffffffffffffffff0219169055600801602081600701049283019260010302612a54565b505b509050612a979190612a9b565b5090565b5b80821115612ab4576000816000905550600101612a9c565b5090565b5b80821115612ad85760008181612acf9190612adc565b50600101612ab9565b5090565b508054612ae890613fc1565b6000825580601f10612afa5750612b19565b601f016020900490600052602060002090810190612b189190612a9b565b5b50565b6000612b2f612b2a84613cbc565b613c97565b90508083825260208201905082856020860282011115612b5257612b51614198565b5b60005b85811015612ba057813567ffffffffffffffff811115612b7857612b77614189565b5b808601612b858982612d7c565b85526020850194506020840193505050600181019050612b55565b5050509392505050565b6000612bbd612bb884613ce8565b613c97565b90508083825260208201905082856020860282011115612be057612bdf614198565b5b60005b85811015612c105781612bf68882612f95565b845260208401935060208301925050600181019050612be3565b5050509392505050565b6000612c2d612c2884613d14565b613c97565b905082815260208101848484011115612c4957612c4861419d565b5b612c54848285613f7f565b509392505050565b6000612c6f612c6a84613d45565b613c97565b905082815260208101848484011115612c8b57612c8a61419d565b5b612c96848285613f7f565b509392505050565b600081359050612cad8161459d565b92915050565b600082601f830112612cc857612cc7614189565b5b8135612cd8848260208601612b1c565b91505092915050565b600082601f830112612cf657612cf5614189565b5b8135612d06848260208601612baa565b91505092915050565b600081359050612d1e816145b4565b92915050565b600081359050612d33816145cb565b92915050565b600081519050612d48816145cb565b92915050565b600082601f830112612d6357612d62614189565b5b8135612d73848260208601612c1a565b91505092915050565b600082601f830112612d9157612d90614189565b5b8135612da1848260208601612c5c565b91505092915050565b60006101408284031215612dc157612dc061418e565b5b612dcc610140613c97565b9050600082013567ffffffffffffffff811115612dec57612deb614193565b5b612df884828501612d7c565b6000830152506020612e0c84828501612f95565b602083015250604082013567ffffffffffffffff811115612e3057612e2f614193565b5b612e3c84828501612d7c565b604083015250606082013567ffffffffffffffff811115612e6057612e5f614193565b5b612e6c84828501612cb3565b606083015250608082013567ffffffffffffffff811115612e9057612e8f614193565b5b612e9c84828501612ce1565b60808301525060a082013567ffffffffffffffff811115612ec057612ebf614193565b5b612ecc84828501612d7c565b60a08301525060c0612ee084828501612f95565b60c08301525060e082013567ffffffffffffffff811115612f0457612f03614193565b5b612f1084828501612d7c565b60e08301525061010082013567ffffffffffffffff811115612f3557612f34614193565b5b612f4184828501612d7c565b6101008301525061012082013567ffffffffffffffff811115612f6757612f66614193565b5b612f7384828501612d7c565b6101208301525092915050565b600081359050612f8f816145e2565b92915050565b600081359050612fa4816145f9565b92915050565b600060208284031215612fc057612fbf6141a7565b5b6000612fce84828501612c9e565b91505092915050565b60008060408385031215612fee57612fed6141a7565b5b6000612ffc85828601612c9e565b925050602061300d85828601612c9e565b9150509250929050565b6000806000606084860312156130305761302f6141a7565b5b600061303e86828701612c9e565b935050602061304f86828701612c9e565b925050604061306086828701612f80565b9150509250925092565b60008060008060808587031215613084576130836141a7565b5b600061309287828801612c9e565b94505060206130a387828801612c9e565b93505060406130b487828801612f80565b925050606085013567ffffffffffffffff8111156130d5576130d46141a2565b5b6130e187828801612d4e565b91505092959194509250565b60008060408385031215613104576131036141a7565b5b600061311285828601612c9e565b925050602061312385828601612d0f565b9150509250929050565b60008060408385031215613144576131436141a7565b5b600061315285828601612c9e565b925050602061316385828601612f80565b9150509250929050565b600060208284031215613183576131826141a7565b5b600061319184828501612d24565b91505092915050565b6000602082840312156131b0576131af6141a7565b5b60006131be84828501612d39565b91505092915050565b6000806000806000806000806000806101408b8d0312156131eb576131ea6141a7565b5b60008b013567ffffffffffffffff811115613209576132086141a2565b5b6132158d828e01612d7c565b9a505060206132268d828e01612f95565b99505060408b013567ffffffffffffffff811115613247576132466141a2565b5b6132538d828e01612d7c565b98505060608b013567ffffffffffffffff811115613274576132736141a2565b5b6132808d828e01612cb3565b97505060808b013567ffffffffffffffff8111156132a1576132a06141a2565b5b6132ad8d828e01612ce1565b96505060a08b013567ffffffffffffffff8111156132ce576132cd6141a2565b5b6132da8d828e01612d7c565b95505060c06132eb8d828e01612f95565b94505060e08b013567ffffffffffffffff81111561330c5761330b6141a2565b5b6133188d828e01612d7c565b9350506101008b013567ffffffffffffffff81111561333a576133396141a2565b5b6133468d828e01612d7c565b9250506101208b013567ffffffffffffffff811115613368576133676141a2565b5b6133748d828e01612d7c565b9150509295989b9194979a5092959850565b6000806040838503121561339d5761339c6141a7565b5b600083013567ffffffffffffffff8111156133bb576133ba6141a2565b5b6133c785828601612daa565b92505060206133d885828601612f80565b9150509250929050565b6000602082840312156133f8576133f76141a7565b5b600061340684828501612f80565b91505092915050565b600061341b8383613565565b905092915050565b600061342f838361390c565b60208301905092915050565b61344481613ef7565b82525050565b600061345582613d96565b61345f8185613ddc565b93508360208202850161347185613d76565b8060005b858110156134ad578484038952815161348e858261340f565b945061349983613dc2565b925060208a01995050600181019050613475565b50829750879550505050505092915050565b60006134ca82613da1565b6134d48185613ded565b93506134df83613d86565b8060005b838110156135105781516134f78882613423565b975061350283613dcf565b9250506001810190506134e3565b5085935050505092915050565b61352681613f09565b82525050565b600061353782613dac565b6135418185613dfe565b9350613551818560208601613f8e565b61355a816141ac565b840191505092915050565b600061357082613db7565b61357a8185613e0f565b935061358a818560208601613f8e565b613593816141ac565b840191505092915050565b60006135a982613db7565b6135b38185613e20565b93506135c3818560208601613f8e565b6135cc816141ac565b840191505092915050565b60006135e282613db7565b6135ec8185613e31565b93506135fc818560208601613f8e565b80840191505092915050565b6000613615603283613e20565b9150613620826141bd565b604082019050919050565b6000613638601c83613e20565b91506136438261420c565b602082019050919050565b600061365b602483613e20565b915061366682614235565b604082019050919050565b600061367e601983613e20565b915061368982614284565b602082019050919050565b60006136a1602c83613e20565b91506136ac826142ad565b604082019050919050565b60006136c4603883613e20565b91506136cf826142fc565b604082019050919050565b60006136e7602a83613e20565b91506136f28261434b565b604082019050919050565b600061370a602983613e20565b91506137158261439a565b604082019050919050565b600061372d602083613e20565b9150613738826143e9565b602082019050919050565b6000613750602c83613e20565b915061375b82614412565b604082019050919050565b6000613773602983613e20565b915061377e82614461565b604082019050919050565b6000613796602f83613e20565b91506137a1826144b0565b604082019050919050565b60006137b9602183613e20565b91506137c4826144ff565b604082019050919050565b60006137dc603183613e20565b91506137e78261454e565b604082019050919050565b60006101408301600083015184820360008601526138108282613565565b9150506020830151613825602086018261390c565b506040830151848203604086015261383d8282613565565b91505060608301518482036060860152613857828261344a565b9150506080830151848203608086015261387182826134bf565b91505060a083015184820360a086015261388b8282613565565b91505060c08301516138a060c086018261390c565b5060e083015184820360e08601526138b88282613565565b9150506101008301518482036101008601526138d48282613565565b9150506101208301518482036101208601526138f08282613565565b9150508091505092915050565b61390681613f61565b82525050565b61391581613f6b565b82525050565b61392481613f6b565b82525050565b600061393682856135d7565b915061394282846135d7565b91508190509392505050565b6000602082019050613963600083018461343b565b92915050565b600060808201905061397e600083018761343b565b61398b602083018661343b565b61399860408301856138fd565b81810360608301526139aa818461352c565b905095945050505050565b60006020820190506139ca600083018461351d565b92915050565b600060208201905081810360008301526139ea818461359e565b905092915050565b6000610100820190508181036000830152613a0d818b61359e565b9050613a1c602083018a61391b565b8181036040830152613a2e818961359e565b90508181036060830152613a42818861359e565b9050613a51608083018761391b565b81810360a0830152613a63818661359e565b905081810360c0830152613a77818561359e565b905081810360e0830152613a8b818461359e565b90509998505050505050505050565b60006020820190508181036000830152613ab381613608565b9050919050565b60006020820190508181036000830152613ad38161362b565b9050919050565b60006020820190508181036000830152613af38161364e565b9050919050565b60006020820190508181036000830152613b1381613671565b9050919050565b60006020820190508181036000830152613b3381613694565b9050919050565b60006020820190508181036000830152613b53816136b7565b9050919050565b60006020820190508181036000830152613b73816136da565b9050919050565b60006020820190508181036000830152613b93816136fd565b9050919050565b60006020820190508181036000830152613bb381613720565b9050919050565b60006020820190508181036000830152613bd381613743565b9050919050565b60006020820190508181036000830152613bf381613766565b9050919050565b60006020820190508181036000830152613c1381613789565b9050919050565b60006020820190508181036000830152613c33816137ac565b9050919050565b60006020820190508181036000830152613c53816137cf565b9050919050565b60006020820190508181036000830152613c7481846137f2565b905092915050565b6000602082019050613c9160008301846138fd565b92915050565b6000613ca1613cb2565b9050613cad8282613ff3565b919050565b6000604051905090565b600067ffffffffffffffff821115613cd757613cd661415a565b5b602082029050602081019050919050565b600067ffffffffffffffff821115613d0357613d0261415a565b5b602082029050602081019050919050565b600067ffffffffffffffff821115613d2f57613d2e61415a565b5b613d38826141ac565b9050602081019050919050565b600067ffffffffffffffff821115613d6057613d5f61415a565b5b613d69826141ac565b9050602081019050919050565b6000819050602082019050919050565b6000819050602082019050919050565b600081519050919050565b600081519050919050565b600081519050919050565b600081519050919050565b6000602082019050919050565b6000602082019050919050565b600082825260208201905092915050565b600082825260208201905092915050565b600082825260208201905092915050565b600082825260208201905092915050565b600082825260208201905092915050565b600081905092915050565b6000613e4782613f61565b9150613e5283613f61565b9250827fffffffffffffffffffffffffffffffffffffffffffffffffffffffffffffffff03821115613e8757613e8661409e565b5b828201905092915050565b6000613e9d82613f61565b9150613ea883613f61565b925082613eb857613eb76140cd565b5b828204905092915050565b6000613ece82613f61565b9150613ed983613f61565b925082821015613eec57613eeb61409e565b5b828203905092915050565b6000613f0282613f41565b9050919050565b60008115159050919050565b60007fffffffff0000000000000000000000000000000000000000000000000000000082169050919050565b600073ffffffffffffffffffffffffffffffffffffffff82169050919050565b6000819050919050565b600067ffffffffffffffff82169050919050565b82818337600083830152505050565b60005b83811015613fac578082015181840152602081019050613f91565b83811115613fbb576000848401525b50505050565b60006002820490506001821680613fd957607f821691505b60208210811415613fed57613fec6140fc565b5b50919050565b613ffc826141ac565b810181811067ffffffffffffffff8211171561401b5761401a61415a565b5b80604052505050565b600061402f82613f61565b91507fffffffffffffffffffffffffffffffffffffffffffffffffffffffffffffffff8214156140625761406161409e565b5b600182019050919050565b600061407882613f61565b915061408383613f61565b925082614093576140926140cd565b5b828206905092915050565b7f4e487b7100000000000000000000000000000000000000000000000000000000600052601160045260246000fd5b7f4e487b7100000000000000000000000000000000000000000000000000000000600052601260045260246000fd5b7f4e487b7100000000000000000000000000000000000000000000000000000000600052602260045260246000fd5b7f4e487b7100000000000000000000000000000000000000000000000000000000600052603260045260246000fd5b7f4e487b7100000000000000000000000000000000000000000000000000000000600052604160045260246000fd5b600080fd5b600080fd5b600080fd5b600080fd5b600080fd5b600080fd5b600080fd5b6000601f19601f8301169050919050565b7f4552433732313a207472616e7366657220746f206e6f6e20455243373231526560008201527f63656976657220696d706c656d656e7465720000000000000000000000000000602082015250565b7f4552433732313a20746f6b656e20616c7265616479206d696e74656400000000600082015250565b7f4552433732313a207472616e7366657220746f20746865207a65726f2061646460008201527f7265737300000000000000000000000000000000000000000000000000000000602082015250565b7f4552433732313a20617070726f766520746f2063616c6c657200000000000000600082015250565b7f4552433732313a206f70657261746f7220717565727920666f72206e6f6e657860008201527f697374656e7420746f6b656e0000000000000000000000000000000000000000602082015250565b7f4552433732313a20617070726f76652063616c6c6572206973206e6f74206f7760008201527f6e6572206e6f7220617070726f76656420666f7220616c6c0000000000000000602082015250565b7f4552433732313a2062616c616e636520717565727920666f7220746865207a6560008201527f726f206164647265737300000000000000000000000000000000000000000000602082015250565b7f4552433732313a206f776e657220717565727920666f72206e6f6e657869737460008201527f656e7420746f6b656e0000000000000000000000000000000000000000000000602082015250565b7f4552433732313a206d696e7420746f20746865207a65726f2061646472657373600082015250565b7f4552433732313a20617070726f76656420717565727920666f72206e6f6e657860008201527f697374656e7420746f6b656e0000000000000000000000000000000000000000602082015250565b7f4552433732313a207472616e73666572206f6620746f6b656e2074686174206960008201527f73206e6f74206f776e0000000000000000000000000000000000000000000000602082015250565b7f4552433732314d657461646174613a2055524920717565727920666f72206e6f60008201527f6e6578697374656e7420746f6b656e0000000000000000000000000000000000602082015250565b7f4552433732313a20617070726f76616c20746f2063757272656e74206f776e6560008201527f7200000000000000000000000000000000000000000000000000000000000000602082015250565b7f4552433732313a207472616e736665722063616c6c6572206973206e6f74206f60008201527f776e6572206e6f7220617070726f766564000000000000000000000000000000602082015250565b6145a681613ef7565b81146145b157600080fd5b50565b6145bd81613f09565b81146145c857600080fd5b50565b6145d481613f15565b81146145df57600080fd5b50565b6145eb81613f61565b81146145f657600080fd5b50565b61460281613f6b565b811461460d57600080fd5b5056fea2646970667358221220adbececab3e1d42ab6a0a843723e4bd897ebd23aeabff9c2d85038fde4f6b68164736f6c63430008060033",
  "immutableReferences": {},
  "source": "// SPDX-License-Identifier: MIT\r\npragma solidity >=0.4.22 <0.9.0;\r\n\r\nimport \"@openzeppelin/contracts/token/ERC721/ERC721.sol\";\r\n\r\ncontract Obra is  ERC721 {\r\n    struct dadosDaObra {\r\n        string nomeDoAutor;\r\n        uint64 cpfDoAutor;\r\n        string nomeArtisticoDoAutor;\r\n        string[] coAutores;\r\n        uint64[] cpfDoCoautor;\r\n        string nomeDoTitular;\r\n        uint64 cpfDoTitular;\r\n        string nomeDaObra;\r\n        string tipoDeObra;\r\n        string descricao;\r\n    }\r\n    dadosDaObra[] public dadosDasObras;\r\n\r\n    mapping (uint => dadosDaObra) idToDados;\r\n    mapping (address => uint) addressToId;\r\n\r\n    constructor () ERC721(\"Obra\", \"OBRA\") {} \r\n\r\n    function getDadosDaObra(uint _id) public view returns (dadosDaObra memory) {\r\n        return idToDados[_id];\r\n    }\r\n\r\n    function createDadosDaObra(\r\n        string memory _nomeDoAutor,\r\n        uint64 _cpfDoAutor,\r\n        string memory _nomeArtisticoDoAutor,\r\n        string[] memory _coAutores,\r\n        uint64[] memory _cpfDoCoautor,\r\n        string memory _nomeDoTitular,\r\n        uint64  _cpfDoTitular,\r\n        string memory _nomeDaObra,\r\n        string memory _tipoDeObra,\r\n        string memory _descricao\r\n    ) public returns (dadosDaObra memory){\r\n        dadosDasObras.push(dadosDaObra(_nomeDoAutor,_cpfDoAutor,_nomeArtisticoDoAutor,_coAutores,_cpfDoCoautor,\r\n        _nomeDoTitular,_cpfDoTitular,_nomeDaObra,_tipoDeObra,_descricao));\r\n        return dadosDasObras[dadosDasObras.length];\r\n    }\r\n\r\n    function mint (dadosDaObra memory _dados, uint _id) public {\r\n        require(addressToId[msg.sender] != _id);\r\n        idToDados[_id] = _dados;\r\n        _mint(msg.sender, _id);\r\n    }\r\n\r\n\r\n}",
  "sourcePath": "C:/Users/Antonio Neto/Desktop/Arque/src/contracts/Obra.sol",
  "compiler": {
    "name": "solc",
    "version": "0.8.6+commit.11564f7e.Emscripten.clang"
  },
  "schemaVersion": "3.4.1",
  "updatedAt": "2021-07-27T00:13:36.006Z",
  "networkType": "ethereum",
  "devdoc": {
    "kind": "dev",
    "methods": {
      "approve(address,uint256)": {
        "details": "See {IERC721-approve}."
      },
      "balanceOf(address)": {
        "details": "See {IERC721-balanceOf}."
      },
      "getApproved(uint256)": {
        "details": "See {IERC721-getApproved}."
      },
      "isApprovedForAll(address,address)": {
        "details": "See {IERC721-isApprovedForAll}."
      },
      "name()": {
        "details": "See {IERC721Metadata-name}."
      },
      "ownerOf(uint256)": {
        "details": "See {IERC721-ownerOf}."
      },
      "safeTransferFrom(address,address,uint256)": {
        "details": "See {IERC721-safeTransferFrom}."
      },
      "safeTransferFrom(address,address,uint256,bytes)": {
        "details": "See {IERC721-safeTransferFrom}."
      },
      "setApprovalForAll(address,bool)": {
        "details": "See {IERC721-setApprovalForAll}."
      },
      "supportsInterface(bytes4)": {
        "details": "See {IERC165-supportsInterface}."
      },
      "symbol()": {
        "details": "See {IERC721Metadata-symbol}."
      },
      "tokenURI(uint256)": {
        "details": "See {IERC721Metadata-tokenURI}."
      },
      "transferFrom(address,address,uint256)": {
        "details": "See {IERC721-transferFrom}."
      }
    },
    "version": 1
  },
  "userdoc": {
    "kind": "user",
    "methods": {},
    "version": 1
  }
}