{
  "contractName": "Obra",
  "abi": [
    {
      "inputs": [],
      "stateMutability": "nonpayable",
      "type": "constructor"
    },
    {
      "anonymous": false,
      "inputs": [
        {
          "indexed": true,
          "internalType": "address",
          "name": "owner",
          "type": "address"
        },
        {
          "indexed": true,
          "internalType": "address",
          "name": "approved",
          "type": "address"
        },
        {
          "indexed": true,
          "internalType": "uint256",
          "name": "tokenId",
          "type": "uint256"
        }
      ],
      "name": "Approval",
      "type": "event"
    },
    {
      "anonymous": false,
      "inputs": [
        {
          "indexed": true,
          "internalType": "address",
          "name": "owner",
          "type": "address"
        },
        {
          "indexed": true,
          "internalType": "address",
          "name": "operator",
          "type": "address"
        },
        {
          "indexed": false,
          "internalType": "bool",
          "name": "approved",
          "type": "bool"
        }
      ],
      "name": "ApprovalForAll",
      "type": "event"
    },
    {
      "anonymous": false,
      "inputs": [
        {
          "indexed": false,
          "internalType": "string",
          "name": "_nomeDaObra",
          "type": "string"
        },
        {
          "indexed": false,
          "internalType": "string",
          "name": "_tipoDaObra",
          "type": "string"
        },
        {
          "indexed": false,
          "internalType": "string",
          "name": "_descricao",
          "type": "string"
        }
      ],
      "name": "DadosDaObra",
      "type": "event"
    },
    {
      "anonymous": false,
      "inputs": [
        {
          "indexed": true,
          "internalType": "address",
          "name": "previousOwner",
          "type": "address"
        },
        {
          "indexed": true,
          "internalType": "address",
          "name": "newOwner",
          "type": "address"
        }
      ],
      "name": "OwnershipTransferred",
      "type": "event"
    },
    {
      "anonymous": false,
      "inputs": [
        {
          "indexed": true,
          "internalType": "address",
          "name": "from",
          "type": "address"
        },
        {
          "indexed": true,
          "internalType": "address",
          "name": "to",
          "type": "address"
        },
        {
          "indexed": true,
          "internalType": "uint256",
          "name": "tokenId",
          "type": "uint256"
        }
      ],
      "name": "Transfer",
      "type": "event"
    },
    {
      "inputs": [
        {
          "internalType": "address",
          "name": "to",
          "type": "address"
        },
        {
          "internalType": "uint256",
          "name": "tokenId",
          "type": "uint256"
        }
      ],
      "name": "approve",
      "outputs": [],
      "stateMutability": "nonpayable",
      "type": "function"
    },
    {
      "inputs": [
        {
          "internalType": "address",
          "name": "owner",
          "type": "address"
        }
      ],
      "name": "balanceOf",
      "outputs": [
        {
          "internalType": "uint256",
          "name": "",
          "type": "uint256"
        }
      ],
      "stateMutability": "view",
      "type": "function",
      "constant": true
    },
    {
      "inputs": [
        {
          "internalType": "uint256",
          "name": "",
          "type": "uint256"
        }
      ],
      "name": "dadosDasObras",
      "outputs": [
        {
          "internalType": "string",
          "name": "nomeDaObra",
          "type": "string"
        },
        {
          "internalType": "string",
          "name": "tipoDeObra",
          "type": "string"
        },
        {
          "internalType": "string",
          "name": "descricao",
          "type": "string"
        }
      ],
      "stateMutability": "view",
      "type": "function",
      "constant": true
    },
    {
      "inputs": [
        {
          "internalType": "uint256",
          "name": "tokenId",
          "type": "uint256"
        }
      ],
      "name": "getApproved",
      "outputs": [
        {
          "internalType": "address",
          "name": "",
          "type": "address"
        }
      ],
      "stateMutability": "view",
      "type": "function",
      "constant": true
    },
    {
      "inputs": [
        {
          "internalType": "address",
          "name": "owner",
          "type": "address"
        },
        {
          "internalType": "address",
          "name": "operator",
          "type": "address"
        }
      ],
      "name": "isApprovedForAll",
      "outputs": [
        {
          "internalType": "bool",
          "name": "",
          "type": "bool"
        }
      ],
      "stateMutability": "view",
      "type": "function",
      "constant": true
    },
    {
      "inputs": [],
      "name": "name",
      "outputs": [
        {
          "internalType": "string",
          "name": "",
          "type": "string"
        }
      ],
      "stateMutability": "view",
      "type": "function",
      "constant": true
    },
    {
      "inputs": [],
      "name": "owner",
      "outputs": [
        {
          "internalType": "address",
          "name": "",
          "type": "address"
        }
      ],
      "stateMutability": "view",
      "type": "function",
      "constant": true
    },
    {
      "inputs": [
        {
          "internalType": "uint256",
          "name": "tokenId",
          "type": "uint256"
        }
      ],
      "name": "ownerOf",
      "outputs": [
        {
          "internalType": "address",
          "name": "",
          "type": "address"
        }
      ],
      "stateMutability": "view",
      "type": "function",
      "constant": true
    },
    {
      "inputs": [],
      "name": "renounceOwnership",
      "outputs": [],
      "stateMutability": "nonpayable",
      "type": "function"
    },
    {
      "inputs": [
        {
          "internalType": "address",
          "name": "from",
          "type": "address"
        },
        {
          "internalType": "address",
          "name": "to",
          "type": "address"
        },
        {
          "internalType": "uint256",
          "name": "tokenId",
          "type": "uint256"
        }
      ],
      "name": "safeTransferFrom",
      "outputs": [],
      "stateMutability": "nonpayable",
      "type": "function"
    },
    {
      "inputs": [
        {
          "internalType": "address",
          "name": "from",
          "type": "address"
        },
        {
          "internalType": "address",
          "name": "to",
          "type": "address"
        },
        {
          "internalType": "uint256",
          "name": "tokenId",
          "type": "uint256"
        },
        {
          "internalType": "bytes",
          "name": "_data",
          "type": "bytes"
        }
      ],
      "name": "safeTransferFrom",
      "outputs": [],
      "stateMutability": "nonpayable",
      "type": "function"
    },
    {
      "inputs": [
        {
          "internalType": "address",
          "name": "operator",
          "type": "address"
        },
        {
          "internalType": "bool",
          "name": "approved",
          "type": "bool"
        }
      ],
      "name": "setApprovalForAll",
      "outputs": [],
      "stateMutability": "nonpayable",
      "type": "function"
    },
    {
      "inputs": [
        {
          "internalType": "bytes4",
          "name": "interfaceId",
          "type": "bytes4"
        }
      ],
      "name": "supportsInterface",
      "outputs": [
        {
          "internalType": "bool",
          "name": "",
          "type": "bool"
        }
      ],
      "stateMutability": "view",
      "type": "function",
      "constant": true
    },
    {
      "inputs": [],
      "name": "symbol",
      "outputs": [
        {
          "internalType": "string",
          "name": "",
          "type": "string"
        }
      ],
      "stateMutability": "view",
      "type": "function",
      "constant": true
    },
    {
      "inputs": [
        {
          "internalType": "uint256",
          "name": "tokenId",
          "type": "uint256"
        }
      ],
      "name": "tokenURI",
      "outputs": [
        {
          "internalType": "string",
          "name": "",
          "type": "string"
        }
      ],
      "stateMutability": "view",
      "type": "function",
      "constant": true
    },
    {
      "inputs": [
        {
          "internalType": "address",
          "name": "from",
          "type": "address"
        },
        {
          "internalType": "address",
          "name": "to",
          "type": "address"
        },
        {
          "internalType": "uint256",
          "name": "tokenId",
          "type": "uint256"
        }
      ],
      "name": "transferFrom",
      "outputs": [],
      "stateMutability": "nonpayable",
      "type": "function"
    },
    {
      "inputs": [
        {
          "internalType": "address",
          "name": "newOwner",
          "type": "address"
        }
      ],
      "name": "transferOwnership",
      "outputs": [],
      "stateMutability": "nonpayable",
      "type": "function"
    },
    {
      "inputs": [
        {
          "internalType": "uint256",
          "name": "_id",
          "type": "uint256"
        }
      ],
      "name": "getDadosDaObra",
      "outputs": [
        {
          "components": [
            {
              "internalType": "string",
              "name": "nomeDaObra",
              "type": "string"
            },
            {
              "internalType": "string",
              "name": "tipoDeObra",
              "type": "string"
            },
            {
              "internalType": "string",
              "name": "descricao",
              "type": "string"
            }
          ],
          "internalType": "struct Obra.dadosDaObra",
          "name": "",
          "type": "tuple"
        }
      ],
      "stateMutability": "view",
      "type": "function",
      "constant": true
    },
    {
      "inputs": [
        {
          "internalType": "string",
          "name": "_nomeDaObra",
          "type": "string"
        },
        {
          "internalType": "string",
          "name": "_tipoDaObra",
          "type": "string"
        },
        {
          "internalType": "string",
          "name": "_descricao",
          "type": "string"
        }
      ],
      "name": "createDadosDaObra",
      "outputs": [],
      "stateMutability": "nonpayable",
      "type": "function"
    },
    {
      "inputs": [
        {
          "components": [
            {
              "internalType": "string",
              "name": "nomeDaObra",
              "type": "string"
            },
            {
              "internalType": "string",
              "name": "tipoDeObra",
              "type": "string"
            },
            {
              "internalType": "string",
              "name": "descricao",
              "type": "string"
            }
          ],
          "internalType": "struct Obra.dadosDaObra",
          "name": "_dados",
          "type": "tuple"
        },
        {
          "internalType": "uint256",
          "name": "_id",
          "type": "uint256"
        }
      ],
      "name": "mint",
      "outputs": [],
      "stateMutability": "nonpayable",
      "type": "function"
    },
    {
      "inputs": [
        {
          "internalType": "address",
          "name": "_address",
          "type": "address"
        },
        {
          "internalType": "uint256",
          "name": "_id",
          "type": "uint256"
        }
      ],
      "name": "sellNFT",
      "outputs": [],
      "stateMutability": "nonpayable",
      "type": "function"
    },
    {
      "inputs": [
        {
          "internalType": "uint256",
          "name": "_id",
          "type": "uint256"
        },
        {
          "internalType": "uint256",
          "name": "_price",
          "type": "uint256"
        }
      ],
      "name": "announce",
      "outputs": [],
      "stateMutability": "nonpayable",
      "type": "function"
    },
    {
      "inputs": [
        {
          "internalType": "uint256",
          "name": "_id",
          "type": "uint256"
        },
        {
          "internalType": "uint256",
          "name": "_value",
          "type": "uint256"
        }
      ],
      "name": "placeBid",
      "outputs": [],
      "stateMutability": "payable",
      "type": "function",
      "payable": true
    },
    {
      "inputs": [
        {
          "internalType": "uint256",
          "name": "_id",
          "type": "uint256"
        }
      ],
      "name": "closeAuction",
      "outputs": [],
      "stateMutability": "payable",
      "type": "function",
      "payable": true
    },
    {
      "inputs": [
        {
          "internalType": "address",
          "name": "_from",
          "type": "address"
        },
        {
          "internalType": "address",
          "name": "_to",
          "type": "address"
        },
        {
          "internalType": "uint256",
          "name": "_id",
          "type": "uint256"
        }
      ],
      "name": "transferObra",
      "outputs": [],
      "stateMutability": "nonpayable",
      "type": "function"
    },
    {
      "inputs": [
        {
          "internalType": "uint256",
          "name": "_id",
          "type": "uint256"
        },
        {
          "internalType": "uint256",
          "name": "_value",
          "type": "uint256"
        }
      ],
      "name": "buyObra",
      "outputs": [],
      "stateMutability": "payable",
      "type": "function",
      "payable": true
    }
  ],
  "bytecode": "0x60806040523480156200001157600080fd5b506040518060400160405280600481526020017f4f627261000000000000000000000000000000000000000000000000000000008152506040518060400160405280600481526020017f4f42524100000000000000000000000000000000000000000000000000000000815250816000908051906020019062000096929190620001a6565b508060019080519060200190620000af929190620001a6565b505050620000d2620000c6620000d860201b60201c565b620000e060201b60201c565b620002bb565b600033905090565b6000600660009054906101000a900473ffffffffffffffffffffffffffffffffffffffff16905081600660006101000a81548173ffffffffffffffffffffffffffffffffffffffff021916908373ffffffffffffffffffffffffffffffffffffffff1602179055508173ffffffffffffffffffffffffffffffffffffffff168173ffffffffffffffffffffffffffffffffffffffff167f8be0079c531659141344cd1fd0a4f28419497f9722a3daafe3b4186f6b6457e060405160405180910390a35050565b828054620001b49062000256565b90600052602060002090601f016020900481019282620001d8576000855562000224565b82601f10620001f357805160ff191683800117855562000224565b8280016001018555821562000224579182015b828111156200022357825182559160200191906001019062000206565b5b50905062000233919062000237565b5090565b5b808211156200025257600081600090555060010162000238565b5090565b600060028204905060018216806200026f57607f821691505b602082108114156200028657620002856200028c565b5b50919050565b7f4e487b7100000000000000000000000000000000000000000000000000000000600052602260045260246000fd5b613af880620002cb6000396000f3fe6080604052600436106101815760003560e01c80636352211e116100d1578063b88d4fde1161008a578063cf530b0d11610064578063cf530b0d14610553578063d480ef921461057c578063e985e9c5146105b9578063f2fde38b146105f657610181565b8063b88d4fde146104c4578063c87b56dd146104ed578063ca04f4bc1461052a57610181565b80636352211e146103b457806370a08231146103f1578063715018a61461042e5780638da5cb5b1461044557806395d89b4114610470578063a22cb4651461049b57610181565b806323b872dd1161013e57806341abf33d1161011857806341abf33d1461032a57806342842e0e14610346578063544807ac1461036f57806357c90de51461039857610181565b806323b872dd146102af5780633ae0da46146102d85780633dae1e7b1461030157610181565b806301ffc9a71461018657806306fdde03146101c3578063081812fc146101ee578063095ea7b31461022b5780631122b01514610254578063236ed8f314610293575b600080fd5b34801561019257600080fd5b506101ad60048036038101906101a891906128d3565b61061f565b6040516101ba9190612ef7565b60405180910390f35b3480156101cf57600080fd5b506101d8610701565b6040516101e59190612f12565b60405180910390f35b3480156101fa57600080fd5b5061021560048036038101906102109190612a30565b610793565b6040516102229190612e90565b60405180910390f35b34801561023757600080fd5b50610252600480360381019061024d9190612893565b610818565b005b34801561026057600080fd5b5061027b60048036038101906102769190612a30565b610930565b60405161028a93929190612f34565b60405180910390f35b6102ad60048036038101906102a89190612a30565b610b02565b005b3480156102bb57600080fd5b506102d660048036038101906102d1919061277d565b610c05565b005b3480156102e457600080fd5b506102ff60048036038101906102fa919061277d565b610c65565b005b34801561030d57600080fd5b50610328600480360381019061032391906129d4565b610c75565b005b610344600480360381019061033f9190612a5d565b610d48565b005b34801561035257600080fd5b5061036d6004803603810190610368919061277d565b610de0565b005b34801561037b57600080fd5b5061039660048036038101906103919190612893565b610e00565b005b6103b260048036038101906103ad9190612a5d565b610e0e565b005b3480156103c057600080fd5b506103db60048036038101906103d69190612a30565b610ea7565b6040516103e89190612e90565b60405180910390f35b3480156103fd57600080fd5b5061041860048036038101906104139190612710565b610f59565b60405161042591906131a2565b60405180910390f35b34801561043a57600080fd5b50610443611011565b005b34801561045157600080fd5b5061045a611099565b6040516104679190612e90565b60405180910390f35b34801561047c57600080fd5b506104856110c3565b6040516104929190612f12565b60405180910390f35b3480156104a757600080fd5b506104c260048036038101906104bd9190612853565b611155565b005b3480156104d057600080fd5b506104eb60048036038101906104e691906127d0565b6112d6565b005b3480156104f957600080fd5b50610514600480360381019061050f9190612a30565b611338565b6040516105219190612f12565b60405180910390f35b34801561053657600080fd5b50610551600480360381019061054c919061292d565b6113df565b005b34801561055f57600080fd5b5061057a60048036038101906105759190612a5d565b6114be565b005b34801561058857600080fd5b506105a3600480360381019061059e9190612a30565b61156c565b6040516105b09190613180565b60405180910390f35b3480156105c557600080fd5b506105e060048036038101906105db919061273d565b61175e565b6040516105ed9190612ef7565b60405180910390f35b34801561060257600080fd5b5061061d60048036038101906106189190612710565b6117f2565b005b60007f80ac58cd000000000000000000000000000000000000000000000000000000007bffffffffffffffffffffffffffffffffffffffffffffffffffffffff1916827bffffffffffffffffffffffffffffffffffffffffffffffffffffffff191614806106ea57507f5b5e139f000000000000000000000000000000000000000000000000000000007bffffffffffffffffffffffffffffffffffffffffffffffffffffffff1916827bffffffffffffffffffffffffffffffffffffffffffffffffffffffff1916145b806106fa57506106f9826118ea565b5b9050919050565b60606000805461071090613414565b80601f016020809104026020016040519081016040528092919081815260200182805461073c90613414565b80156107895780601f1061075e57610100808354040283529160200191610789565b820191906000526020600020905b81548152906001019060200180831161076c57829003601f168201915b5050505050905090565b600061079e82611954565b6107dd576040517f08c379a00000000000000000000000000000000000000000000000000000000081526004016107d4906130c0565b60405180910390fd5b6004600083815260200190815260200160002060009054906101000a900473ffffffffffffffffffffffffffffffffffffffff169050919050565b600061082382610ea7565b90508073ffffffffffffffffffffffffffffffffffffffff168373ffffffffffffffffffffffffffffffffffffffff161415610894576040517f08c379a000000000000000000000000000000000000000000000000000000000815260040161088b90613140565b60405180910390fd5b8073ffffffffffffffffffffffffffffffffffffffff166108b36119c0565b73ffffffffffffffffffffffffffffffffffffffff1614806108e257506108e1816108dc6119c0565b61175e565b5b610921576040517f08c379a000000000000000000000000000000000000000000000000000000000815260040161091890613040565b60405180910390fd5b61092b83836119c8565b505050565b6007818154811061094057600080fd5b906000526020600020906003020160009150905080600001805461096390613414565b80601f016020809104026020016040519081016040528092919081815260200182805461098f90613414565b80156109dc5780601f106109b1576101008083540402835291602001916109dc565b820191906000526020600020905b8154815290600101906020018083116109bf57829003601f168201915b5050505050908060010180546109f190613414565b80601f0160208091040260200160405190810160405280929190818152602001828054610a1d90613414565b8015610a6a5780601f10610a3f57610100808354040283529160200191610a6a565b820191906000526020600020905b815481529060010190602001808311610a4d57829003601f168201915b505050505090806002018054610a7f90613414565b80601f0160208091040260200160405190810160405280929190818152602001828054610aab90613414565b8015610af85780601f10610acd57610100808354040283529160200191610af8565b820191906000526020600020905b815481529060010190602001808311610adb57829003601f168201915b5050505050905083565b610b0b81610ea7565b73ffffffffffffffffffffffffffffffffffffffff163373ffffffffffffffffffffffffffffffffffffffff1614610b4257600080fd5b6000600c600083815260200190815260200160002060009054906101000a900473ffffffffffffffffffffffffffffffffffffffff169050610b85338284610c65565b3373ffffffffffffffffffffffffffffffffffffffff16600b600084815260200190815260200160002054604051610bbc90612e7b565b60006040518083038185875af1925050503d8060008114610bf9576040519150601f19603f3d011682016040523d82523d6000602084013e610bfe565b606091505b5050505050565b610c16610c106119c0565b82611a81565b610c55576040517f08c379a0000000000000000000000000000000000000000000000000000000008152600401610c4c90613160565b60405180910390fd5b610c60838383611b5f565b505050565b610c70838383610de0565b505050565b600a600082815260200190815260200160002060009054906101000a900460ff1615610ca057600080fd5b81600860008381526020019081526020016000206000820151816000019080519060200190610cd092919061244b565b506020820151816001019080519060200190610ced92919061244b565b506040820151816002019080519060200190610d0a92919061244b565b50905050610d183382611dbb565b6001600a600083815260200190815260200160002060006101000a81548160ff0219169083151502179055505050565b60003390506000610d5884610ea7565b9050823414610d6657600080fd5b8173ffffffffffffffffffffffffffffffffffffffff1683604051610d8a90612e7b565b60006040518083038185875af1925050503d8060008114610dc7576040519150601f19603f3d011682016040523d82523d6000602084013e610dcc565b606091505b505050610dda818386610c65565b50505050565b610dfb838383604051806020016040528060008152506112d6565b505050565b610e0a8282610818565b5050565b600b6000838152602001908152602001600020548111610e2d57600080fd5b348114610e3957600080fd5b80600b60008481526020019081526020016000208190555033600c600084815260200190815260200160002060006101000a81548173ffffffffffffffffffffffffffffffffffffffff021916908373ffffffffffffffffffffffffffffffffffffffff1602179055505050565b6000806002600084815260200190815260200160002060009054906101000a900473ffffffffffffffffffffffffffffffffffffffff169050600073ffffffffffffffffffffffffffffffffffffffff168173ffffffffffffffffffffffffffffffffffffffff161415610f50576040517f08c379a0000000000000000000000000000000000000000000000000000000008152600401610f4790613080565b60405180910390fd5b80915050919050565b60008073ffffffffffffffffffffffffffffffffffffffff168273ffffffffffffffffffffffffffffffffffffffff161415610fca576040517f08c379a0000000000000000000000000000000000000000000000000000000008152600401610fc190613060565b60405180910390fd5b600360008373ffffffffffffffffffffffffffffffffffffffff1673ffffffffffffffffffffffffffffffffffffffff168152602001908152602001600020549050919050565b6110196119c0565b73ffffffffffffffffffffffffffffffffffffffff16611037611099565b73ffffffffffffffffffffffffffffffffffffffff161461108d576040517f08c379a0000000000000000000000000000000000000000000000000000000008152600401611084906130e0565b60405180910390fd5b6110976000611dd9565b565b6000600660009054906101000a900473ffffffffffffffffffffffffffffffffffffffff16905090565b6060600180546110d290613414565b80601f01602080910402602001604051908101604052809291908181526020018280546110fe90613414565b801561114b5780601f106111205761010080835404028352916020019161114b565b820191906000526020600020905b81548152906001019060200180831161112e57829003601f168201915b5050505050905090565b61115d6119c0565b73ffffffffffffffffffffffffffffffffffffffff168273ffffffffffffffffffffffffffffffffffffffff1614156111cb576040517f08c379a00000000000000000000000000000000000000000000000000000000081526004016111c290613000565b60405180910390fd5b80600560006111d86119c0565b73ffffffffffffffffffffffffffffffffffffffff1673ffffffffffffffffffffffffffffffffffffffff16815260200190815260200160002060008473ffffffffffffffffffffffffffffffffffffffff1673ffffffffffffffffffffffffffffffffffffffff16815260200190815260200160002060006101000a81548160ff0219169083151502179055508173ffffffffffffffffffffffffffffffffffffffff166112856119c0565b73ffffffffffffffffffffffffffffffffffffffff167f17307eab39ab6107e8899845ad3d59bd9653f200f220920489ca2b5937696c31836040516112ca9190612ef7565b60405180910390a35050565b6112e76112e16119c0565b83611a81565b611326576040517f08c379a000000000000000000000000000000000000000000000000000000000815260040161131d90613160565b60405180910390fd5b61133284848484611e9f565b50505050565b606061134382611954565b611382576040517f08c379a000000000000000000000000000000000000000000000000000000000815260040161137990613120565b60405180910390fd5b600061138c611efb565b905060008151116113ac57604051806020016040528060008152506113d7565b806113b684611f12565b6040516020016113c7929190612e57565b6040516020818303038152906040525b915050919050565b60076040518060600160405280858152602001848152602001838152509080600181540180825580915050600190039060005260206000209060030201600090919091909150600082015181600001908051906020019061144192919061244b565b50602082015181600101908051906020019061145e92919061244b565b50604082015181600201908051906020019061147b92919061244b565b5050507f018e47ed95ec14ac389ea8284b3d6f012c8e1555f371a32c113a44116c76ab778383836040516114b193929190612f34565b60405180910390a1505050565b6114c782610ea7565b73ffffffffffffffffffffffffffffffffffffffff163373ffffffffffffffffffffffffffffffffffffffff16146114fe57600080fd5b80600b60008481526020019081526020016000208190555033600c600084815260200190815260200160002060006101000a81548173ffffffffffffffffffffffffffffffffffffffff021916908373ffffffffffffffffffffffffffffffffffffffff1602179055505050565b6115746124d1565b600782815481106115885761158761357e565b5b90600052602060002090600302016040518060600160405290816000820180546115b190613414565b80601f01602080910402602001604051908101604052809291908181526020018280546115dd90613414565b801561162a5780601f106115ff5761010080835404028352916020019161162a565b820191906000526020600020905b81548152906001019060200180831161160d57829003601f168201915b5050505050815260200160018201805461164390613414565b80601f016020809104026020016040519081016040528092919081815260200182805461166f90613414565b80156116bc5780601f10611691576101008083540402835291602001916116bc565b820191906000526020600020905b81548152906001019060200180831161169f57829003601f168201915b505050505081526020016002820180546116d590613414565b80601f016020809104026020016040519081016040528092919081815260200182805461170190613414565b801561174e5780601f106117235761010080835404028352916020019161174e565b820191906000526020600020905b81548152906001019060200180831161173157829003601f168201915b5050505050815250509050919050565b6000600560008473ffffffffffffffffffffffffffffffffffffffff1673ffffffffffffffffffffffffffffffffffffffff16815260200190815260200160002060008373ffffffffffffffffffffffffffffffffffffffff1673ffffffffffffffffffffffffffffffffffffffff16815260200190815260200160002060009054906101000a900460ff16905092915050565b6117fa6119c0565b73ffffffffffffffffffffffffffffffffffffffff16611818611099565b73ffffffffffffffffffffffffffffffffffffffff161461186e576040517f08c379a0000000000000000000000000000000000000000000000000000000008152600401611865906130e0565b60405180910390fd5b600073ffffffffffffffffffffffffffffffffffffffff168173ffffffffffffffffffffffffffffffffffffffff1614156118de576040517f08c379a00000000000000000000000000000000000000000000000000000000081526004016118d590612fa0565b60405180910390fd5b6118e781611dd9565b50565b60007f01ffc9a7000000000000000000000000000000000000000000000000000000007bffffffffffffffffffffffffffffffffffffffffffffffffffffffff1916827bffffffffffffffffffffffffffffffffffffffffffffffffffffffff1916149050919050565b60008073ffffffffffffffffffffffffffffffffffffffff166002600084815260200190815260200160002060009054906101000a900473ffffffffffffffffffffffffffffffffffffffff1673ffffffffffffffffffffffffffffffffffffffff1614159050919050565b600033905090565b816004600083815260200190815260200160002060006101000a81548173ffffffffffffffffffffffffffffffffffffffff021916908373ffffffffffffffffffffffffffffffffffffffff160217905550808273ffffffffffffffffffffffffffffffffffffffff16611a3b83610ea7565b73ffffffffffffffffffffffffffffffffffffffff167f8c5be1e5ebec7d5bd14f71427d1e84f3dd0314c0f7b2291e5b200ac8c7c3b92560405160405180910390a45050565b6000611a8c82611954565b611acb576040517f08c379a0000000000000000000000000000000000000000000000000000000008152600401611ac290613020565b60405180910390fd5b6000611ad683610ea7565b90508073ffffffffffffffffffffffffffffffffffffffff168473ffffffffffffffffffffffffffffffffffffffff161480611b4557508373ffffffffffffffffffffffffffffffffffffffff16611b2d84610793565b73ffffffffffffffffffffffffffffffffffffffff16145b80611b565750611b55818561175e565b5b91505092915050565b8273ffffffffffffffffffffffffffffffffffffffff16611b7f82610ea7565b73ffffffffffffffffffffffffffffffffffffffff1614611bd5576040517f08c379a0000000000000000000000000000000000000000000000000000000008152600401611bcc90613100565b60405180910390fd5b600073ffffffffffffffffffffffffffffffffffffffff168273ffffffffffffffffffffffffffffffffffffffff161415611c45576040517f08c379a0000000000000000000000000000000000000000000000000000000008152600401611c3c90612fe0565b60405180910390fd5b611c50838383612073565b611c5b6000826119c8565b6001600360008573ffffffffffffffffffffffffffffffffffffffff1673ffffffffffffffffffffffffffffffffffffffff1681526020019081526020016000206000828254611cab919061332a565b925050819055506001600360008473ffffffffffffffffffffffffffffffffffffffff1673ffffffffffffffffffffffffffffffffffffffff1681526020019081526020016000206000828254611d0291906132a3565b92505081905550816002600083815260200190815260200160002060006101000a81548173ffffffffffffffffffffffffffffffffffffffff021916908373ffffffffffffffffffffffffffffffffffffffff160217905550808273ffffffffffffffffffffffffffffffffffffffff168473ffffffffffffffffffffffffffffffffffffffff167fddf252ad1be2c89b69c2b068fc378daa952ba7f163c4a11628f55a4df523b3ef60405160405180910390a4505050565b611dd5828260405180602001604052806000815250612078565b5050565b6000600660009054906101000a900473ffffffffffffffffffffffffffffffffffffffff16905081600660006101000a81548173ffffffffffffffffffffffffffffffffffffffff021916908373ffffffffffffffffffffffffffffffffffffffff1602179055508173ffffffffffffffffffffffffffffffffffffffff168173ffffffffffffffffffffffffffffffffffffffff167f8be0079c531659141344cd1fd0a4f28419497f9722a3daafe3b4186f6b6457e060405160405180910390a35050565b611eaa848484611b5f565b611eb6848484846120d3565b611ef5576040517f08c379a0000000000000000000000000000000000000000000000000000000008152600401611eec90612f80565b60405180910390fd5b50505050565b606060405180602001604052806000815250905090565b60606000821415611f5a576040518060400160405280600181526020017f3000000000000000000000000000000000000000000000000000000000000000815250905061206e565b600082905060005b60008214611f8c578080611f7590613477565b915050600a82611f8591906132f9565b9150611f62565b60008167ffffffffffffffff811115611fa857611fa76135ad565b5b6040519080825280601f01601f191660200182016040528015611fda5781602001600182028036833780820191505090505b5090505b6000851461206757600182611ff3919061332a565b9150600a8561200291906134c0565b603061200e91906132a3565b60f81b8183815181106120245761202361357e565b5b60200101907effffffffffffffffffffffffffffffffffffffffffffffffffffffffffffff1916908160001a905350600a8561206091906132f9565b9450611fde565b8093505050505b919050565b505050565b612082838361226a565b61208f60008484846120d3565b6120ce576040517f08c379a00000000000000000000000000000000000000000000000000000000081526004016120c590612f80565b60405180910390fd5b505050565b60006120f48473ffffffffffffffffffffffffffffffffffffffff16612438565b1561225d578373ffffffffffffffffffffffffffffffffffffffff1663150b7a0261211d6119c0565b8786866040518563ffffffff1660e01b815260040161213f9493929190612eab565b602060405180830381600087803b15801561215957600080fd5b505af192505050801561218a57506040513d601f19601f820116820180604052508101906121879190612900565b60015b61220d573d80600081146121ba576040519150601f19603f3d011682016040523d82523d6000602084013e6121bf565b606091505b50600081511415612205576040517f08c379a00000000000000000000000000000000000000000000000000000000081526004016121fc90612f80565b60405180910390fd5b805181602001fd5b63150b7a0260e01b7bffffffffffffffffffffffffffffffffffffffffffffffffffffffff1916817bffffffffffffffffffffffffffffffffffffffffffffffffffffffff191614915050612262565b600190505b949350505050565b600073ffffffffffffffffffffffffffffffffffffffff168273ffffffffffffffffffffffffffffffffffffffff1614156122da576040517f08c379a00000000000000000000000000000000000000000000000000000000081526004016122d1906130a0565b60405180910390fd5b6122e381611954565b15612323576040517f08c379a000000000000000000000000000000000000000000000000000000000815260040161231a90612fc0565b60405180910390fd5b61232f60008383612073565b6001600360008473ffffffffffffffffffffffffffffffffffffffff1673ffffffffffffffffffffffffffffffffffffffff168152602001908152602001600020600082825461237f91906132a3565b92505081905550816002600083815260200190815260200160002060006101000a81548173ffffffffffffffffffffffffffffffffffffffff021916908373ffffffffffffffffffffffffffffffffffffffff160217905550808273ffffffffffffffffffffffffffffffffffffffff16600073ffffffffffffffffffffffffffffffffffffffff167fddf252ad1be2c89b69c2b068fc378daa952ba7f163c4a11628f55a4df523b3ef60405160405180910390a45050565b600080823b905060008111915050919050565b82805461245790613414565b90600052602060002090601f01602090048101928261247957600085556124c0565b82601f1061249257805160ff19168380011785556124c0565b828001600101855582156124c0579182015b828111156124bf5782518255916020019190600101906124a4565b5b5090506124cd91906124f2565b5090565b60405180606001604052806060815260200160608152602001606081525090565b5b8082111561250b5760008160009055506001016124f3565b5090565b600061252261251d846131e2565b6131bd565b90508281526020810184848401111561253e5761253d6135eb565b5b6125498482856133d2565b509392505050565b600061256461255f84613213565b6131bd565b9050828152602081018484840111156125805761257f6135eb565b5b61258b8482856133d2565b509392505050565b6000813590506125a281613a66565b92915050565b6000813590506125b781613a7d565b92915050565b6000813590506125cc81613a94565b92915050565b6000815190506125e181613a94565b92915050565b600082601f8301126125fc576125fb6135dc565b5b813561260c84826020860161250f565b91505092915050565b600082601f83011261262a576126296135dc565b5b813561263a848260208601612551565b91505092915050565b600060608284031215612659576126586135e1565b5b61266360606131bd565b9050600082013567ffffffffffffffff811115612683576126826135e6565b5b61268f84828501612615565b600083015250602082013567ffffffffffffffff8111156126b3576126b26135e6565b5b6126bf84828501612615565b602083015250604082013567ffffffffffffffff8111156126e3576126e26135e6565b5b6126ef84828501612615565b60408301525092915050565b60008135905061270a81613aab565b92915050565b600060208284031215612726576127256135f5565b5b600061273484828501612593565b91505092915050565b60008060408385031215612754576127536135f5565b5b600061276285828601612593565b925050602061277385828601612593565b9150509250929050565b600080600060608486031215612796576127956135f5565b5b60006127a486828701612593565b93505060206127b586828701612593565b92505060406127c6868287016126fb565b9150509250925092565b600080600080608085870312156127ea576127e96135f5565b5b60006127f887828801612593565b945050602061280987828801612593565b935050604061281a878288016126fb565b925050606085013567ffffffffffffffff81111561283b5761283a6135f0565b5b612847878288016125e7565b91505092959194509250565b6000806040838503121561286a576128696135f5565b5b600061287885828601612593565b9250506020612889858286016125a8565b9150509250929050565b600080604083850312156128aa576128a96135f5565b5b60006128b885828601612593565b92505060206128c9858286016126fb565b9150509250929050565b6000602082840312156128e9576128e86135f5565b5b60006128f7848285016125bd565b91505092915050565b600060208284031215612916576129156135f5565b5b6000612924848285016125d2565b91505092915050565b600080600060608486031215612946576129456135f5565b5b600084013567ffffffffffffffff811115612964576129636135f0565b5b61297086828701612615565b935050602084013567ffffffffffffffff811115612991576129906135f0565b5b61299d86828701612615565b925050604084013567ffffffffffffffff8111156129be576129bd6135f0565b5b6129ca86828701612615565b9150509250925092565b600080604083850312156129eb576129ea6135f5565b5b600083013567ffffffffffffffff811115612a0957612a086135f0565b5b612a1585828601612643565b9250506020612a26858286016126fb565b9150509250929050565b600060208284031215612a4657612a456135f5565b5b6000612a54848285016126fb565b91505092915050565b60008060408385031215612a7457612a736135f5565b5b6000612a82858286016126fb565b9250506020612a93858286016126fb565b9150509250929050565b612aa68161335e565b82525050565b612ab581613370565b82525050565b6000612ac682613244565b612ad0818561325a565b9350612ae08185602086016133e1565b612ae9816135fa565b840191505092915050565b6000612aff8261324f565b612b098185613276565b9350612b198185602086016133e1565b612b22816135fa565b840191505092915050565b6000612b388261324f565b612b428185613287565b9350612b528185602086016133e1565b612b5b816135fa565b840191505092915050565b6000612b718261324f565b612b7b8185613298565b9350612b8b8185602086016133e1565b80840191505092915050565b6000612ba4603283613287565b9150612baf8261360b565b604082019050919050565b6000612bc7602683613287565b9150612bd28261365a565b604082019050919050565b6000612bea601c83613287565b9150612bf5826136a9565b602082019050919050565b6000612c0d602483613287565b9150612c18826136d2565b604082019050919050565b6000612c30601983613287565b9150612c3b82613721565b602082019050919050565b6000612c53602c83613287565b9150612c5e8261374a565b604082019050919050565b6000612c76603883613287565b9150612c8182613799565b604082019050919050565b6000612c99602a83613287565b9150612ca4826137e8565b604082019050919050565b6000612cbc602983613287565b9150612cc782613837565b604082019050919050565b6000612cdf602083613287565b9150612cea82613886565b602082019050919050565b6000612d02602c83613287565b9150612d0d826138af565b604082019050919050565b6000612d25602083613287565b9150612d30826138fe565b602082019050919050565b6000612d48602983613287565b9150612d5382613927565b604082019050919050565b6000612d6b602f83613287565b9150612d7682613976565b604082019050919050565b6000612d8e602183613287565b9150612d99826139c5565b604082019050919050565b6000612db160008361326b565b9150612dbc82613a14565b600082019050919050565b6000612dd4603183613287565b9150612ddf82613a17565b604082019050919050565b60006060830160008301518482036000860152612e078282612af4565b91505060208301518482036020860152612e218282612af4565b91505060408301518482036040860152612e3b8282612af4565b9150508091505092915050565b612e51816133c8565b82525050565b6000612e638285612b66565b9150612e6f8284612b66565b91508190509392505050565b6000612e8682612da4565b9150819050919050565b6000602082019050612ea56000830184612a9d565b92915050565b6000608082019050612ec06000830187612a9d565b612ecd6020830186612a9d565b612eda6040830185612e48565b8181036060830152612eec8184612abb565b905095945050505050565b6000602082019050612f0c6000830184612aac565b92915050565b60006020820190508181036000830152612f2c8184612b2d565b905092915050565b60006060820190508181036000830152612f4e8186612b2d565b90508181036020830152612f628185612b2d565b90508181036040830152612f768184612b2d565b9050949350505050565b60006020820190508181036000830152612f9981612b97565b9050919050565b60006020820190508181036000830152612fb981612bba565b9050919050565b60006020820190508181036000830152612fd981612bdd565b9050919050565b60006020820190508181036000830152612ff981612c00565b9050919050565b6000602082019050818103600083015261301981612c23565b9050919050565b6000602082019050818103600083015261303981612c46565b9050919050565b6000602082019050818103600083015261305981612c69565b9050919050565b6000602082019050818103600083015261307981612c8c565b9050919050565b6000602082019050818103600083015261309981612caf565b9050919050565b600060208201905081810360008301526130b981612cd2565b9050919050565b600060208201905081810360008301526130d981612cf5565b9050919050565b600060208201905081810360008301526130f981612d18565b9050919050565b6000602082019050818103600083015261311981612d3b565b9050919050565b6000602082019050818103600083015261313981612d5e565b9050919050565b6000602082019050818103600083015261315981612d81565b9050919050565b6000602082019050818103600083015261317981612dc7565b9050919050565b6000602082019050818103600083015261319a8184612dea565b905092915050565b60006020820190506131b76000830184612e48565b92915050565b60006131c76131d8565b90506131d38282613446565b919050565b6000604051905090565b600067ffffffffffffffff8211156131fd576131fc6135ad565b5b613206826135fa565b9050602081019050919050565b600067ffffffffffffffff82111561322e5761322d6135ad565b5b613237826135fa565b9050602081019050919050565b600081519050919050565b600081519050919050565b600082825260208201905092915050565b600081905092915050565b600082825260208201905092915050565b600082825260208201905092915050565b600081905092915050565b60006132ae826133c8565b91506132b9836133c8565b9250827fffffffffffffffffffffffffffffffffffffffffffffffffffffffffffffffff038211156132ee576132ed6134f1565b5b828201905092915050565b6000613304826133c8565b915061330f836133c8565b92508261331f5761331e613520565b5b828204905092915050565b6000613335826133c8565b9150613340836133c8565b925082821015613353576133526134f1565b5b828203905092915050565b6000613369826133a8565b9050919050565b60008115159050919050565b60007fffffffff0000000000000000000000000000000000000000000000000000000082169050919050565b600073ffffffffffffffffffffffffffffffffffffffff82169050919050565b6000819050919050565b82818337600083830152505050565b60005b838110156133ff5780820151818401526020810190506133e4565b8381111561340e576000848401525b50505050565b6000600282049050600182168061342c57607f821691505b602082108114156134405761343f61354f565b5b50919050565b61344f826135fa565b810181811067ffffffffffffffff8211171561346e5761346d6135ad565b5b80604052505050565b6000613482826133c8565b91507fffffffffffffffffffffffffffffffffffffffffffffffffffffffffffffffff8214156134b5576134b46134f1565b5b600182019050919050565b60006134cb826133c8565b91506134d6836133c8565b9250826134e6576134e5613520565b5b828206905092915050565b7f4e487b7100000000000000000000000000000000000000000000000000000000600052601160045260246000fd5b7f4e487b7100000000000000000000000000000000000000000000000000000000600052601260045260246000fd5b7f4e487b7100000000000000000000000000000000000000000000000000000000600052602260045260246000fd5b7f4e487b7100000000000000000000000000000000000000000000000000000000600052603260045260246000fd5b7f4e487b7100000000000000000000000000000000000000000000000000000000600052604160045260246000fd5b600080fd5b600080fd5b600080fd5b600080fd5b600080fd5b600080fd5b6000601f19601f8301169050919050565b7f4552433732313a207472616e7366657220746f206e6f6e20455243373231526560008201527f63656976657220696d706c656d656e7465720000000000000000000000000000602082015250565b7f4f776e61626c653a206e6577206f776e657220697320746865207a65726f206160008201527f6464726573730000000000000000000000000000000000000000000000000000602082015250565b7f4552433732313a20746f6b656e20616c7265616479206d696e74656400000000600082015250565b7f4552433732313a207472616e7366657220746f20746865207a65726f2061646460008201527f7265737300000000000000000000000000000000000000000000000000000000602082015250565b7f4552433732313a20617070726f766520746f2063616c6c657200000000000000600082015250565b7f4552433732313a206f70657261746f7220717565727920666f72206e6f6e657860008201527f697374656e7420746f6b656e0000000000000000000000000000000000000000602082015250565b7f4552433732313a20617070726f76652063616c6c6572206973206e6f74206f7760008201527f6e6572206e6f7220617070726f76656420666f7220616c6c0000000000000000602082015250565b7f4552433732313a2062616c616e636520717565727920666f7220746865207a6560008201527f726f206164647265737300000000000000000000000000000000000000000000602082015250565b7f4552433732313a206f776e657220717565727920666f72206e6f6e657869737460008201527f656e7420746f6b656e0000000000000000000000000000000000000000000000602082015250565b7f4552433732313a206d696e7420746f20746865207a65726f2061646472657373600082015250565b7f4552433732313a20617070726f76656420717565727920666f72206e6f6e657860008201527f697374656e7420746f6b656e0000000000000000000000000000000000000000602082015250565b7f4f776e61626c653a2063616c6c6572206973206e6f7420746865206f776e6572600082015250565b7f4552433732313a207472616e73666572206f6620746f6b656e2074686174206960008201527f73206e6f74206f776e0000000000000000000000000000000000000000000000602082015250565b7f4552433732314d657461646174613a2055524920717565727920666f72206e6f60008201527f6e6578697374656e7420746f6b656e0000000000000000000000000000000000602082015250565b7f4552433732313a20617070726f76616c20746f2063757272656e74206f776e6560008201527f7200000000000000000000000000000000000000000000000000000000000000602082015250565b50565b7f4552433732313a207472616e736665722063616c6c6572206973206e6f74206f60008201527f776e6572206e6f7220617070726f766564000000000000000000000000000000602082015250565b613a6f8161335e565b8114613a7a57600080fd5b50565b613a8681613370565b8114613a9157600080fd5b50565b613a9d8161337c565b8114613aa857600080fd5b50565b613ab4816133c8565b8114613abf57600080fd5b5056fea2646970667358221220f26392d7c43c0ba7f60804ff35fcbcb072bc34f8e6568e90c1871f5a8c900ea864736f6c63430008060033",
  "immutableReferences": {},
  "source": "// SPDX-License-Identifier: MIT\r\npragma solidity >=0.4.22 <0.9.0;\r\n\r\nimport \"@openzeppelin/contracts/token/ERC721/ERC721.sol\";\r\nimport \"@openzeppelin/contracts/access/Ownable.sol\";\r\ncontract Obra is  ERC721, Ownable {\r\n    //struct referente aos dados das obras\r\n    struct dadosDaObra {\r\n    string nomeDaObra;\r\n    string tipoDeObra;\r\n    string descricao;\r\n}\r\n    //Array que armazena os dadosDasObras\r\n    dadosDaObra[] public dadosDasObras;\r\n    //mapping que armazena os dados de determinada obra\r\n    mapping (uint => dadosDaObra) idToDados;\r\n    //mapping que armazena as obras que determinado endereo possui\r\n    mapping (address => uint) addressToId;\r\n    //mapping para verificar se uma determinada Obra j foi mintada\r\n    mapping (uint => bool) nftExists;\r\n    //mapping que armazena o valor da obra\r\n    mapping (uint => uint) idToPrice;\r\n    //mapping que recebe o preo e retorna o address\r\n    mapping (uint => address) bidPriceToAddress;\r\n    event DadosDaObra (\r\n    string _nomeDaObra,\r\n    string _tipoDaObra,\r\n    string _descricao\r\n);\r\n\r\n    constructor () ERC721(\"Obra\", \"OBRA\") {} \r\n    //funo que retorna uma Obra passando o ID dela;\r\n    function getDadosDaObra(uint _id) public view returns (dadosDaObra memory) {\r\n        return dadosDasObras[_id];\r\n    }\r\n\r\n    //Funo que cria a struct dadosDaObra e insere ela no array de structs \"dadosDasObras\";\r\n    function createDadosDaObra (\r\n        string memory _nomeDaObra,\r\n        string memory _tipoDaObra,\r\n        string memory _descricao) public {\r\n            dadosDasObras.push(dadosDaObra(_nomeDaObra,_tipoDaObra,_descricao));\r\n\r\n        emit DadosDaObra(_nomeDaObra,_tipoDaObra,_descricao);\r\n    }\r\n\r\n    function mint (dadosDaObra memory _dados, uint _id) public {\r\n        //Requerir que a mesma NFT no seja mintada mais de uma vez\r\n        require(!nftExists[_id]);\r\n        //Adiciona no mapping Id To Dados para que tenhamos acesso a quem mintou determinada NFT\r\n        idToDados[_id] = _dados;\r\n        //Minta com a funo de mint da biblioteca ERC721\r\n        _safeMint(msg.sender, _id);\r\n        //Adiciona a NFT no mapping de existencia de NFTs\r\n        nftExists[_id] = true;\r\n    }\r\n\r\n    function sellNFT(address _address, uint _id) public {\r\n        approve(_address, _id);\r\n    }\r\n    \r\n    function announce(uint  _id, uint _price) public {\r\n        require(msg.sender == ownerOf(_id));\r\n        idToPrice[_id] = _price;\r\n        bidPriceToAddress[_id] = msg.sender;\r\n    }\r\n\r\n    function placeBid (uint _id, uint _value) public payable {\r\n        require(_value > idToPrice[_id]);\r\n        require(_value == msg.value);\r\n        idToPrice[_id] = _value;\r\n        bidPriceToAddress[_id] = msg.sender;\r\n    }\r\n\r\n    function closeAuction(uint _id) public payable{\r\n        require(msg.sender == ownerOf(_id));\r\n        address _to = bidPriceToAddress[_id];\r\n        transferObra(msg.sender, _to, _id);\r\n        payable(msg.sender).call{value: idToPrice[_id]}(\"\");\r\n    }\r\n\r\n\r\n    function transferObra(address _from,address _to,uint _id ) public {\r\n        safeTransferFrom(_from,_to , _id);\r\n    }\r\n\r\n    function buyObra(uint _id, uint _value)  public payable {\r\n    address _to = msg.sender;\r\n    address  _from = ownerOf(_id);\r\n    require(msg.value  == _value);\r\n    _to.call{value: _value}(\"\");\r\n    transferObra(_from, _to, _id);    \r\n    }\r\n\r\n}",
  "sourcePath": "C:/Users/Blockchainone6/Desktop/Arque/contracts/Obra.sol",
  "compiler": {
    "name": "solc",
    "version": "0.8.6+commit.11564f7e.Emscripten.clang"
  },
  "schemaVersion": "3.4.1",
  "updatedAt": "2021-07-30T18:27:49.216Z",
  "networkType": "ethereum",
  "devdoc": {
    "kind": "dev",
    "methods": {
      "approve(address,uint256)": {
        "details": "See {IERC721-approve}."
      },
      "balanceOf(address)": {
        "details": "See {IER721-balanceOf}."
      },
      "getApproved(uint256)": {
        "details": "See {IERC721-getApproved}."
      },
      "isApprovedForAll(address,address)": {
        "details": "See {IERC721-isApprovedForAll}."
      },
      "name()": {
        "details": "See {IERC721Metadata-name}."
      },
      "owner()": {
        "details": "Returns the address of the current owner."
      },
      "ownerOf(uint256)": {
        "details": "See {IERC721-ownerOf}."
      },
      "renounceOwnership()": {
        "details": "Leaves the contract without owner. It will not be possible to call `onlyOwner` functions anymore. Can only be called by the current owner. NOTE: Renouncing ownership will leave the contract without an owner, thereby removing any functionality that is only available to the owner."
      },
      "safeTransferFrom(address,address,uint256)": {
        "details": "See {IERC721-safeTransferFrom}."
      },
      "safeTransferFrom(address,address,uint256,bytes)": {
        "details": "See {IERC721-safeTransferFrom}."
      },
      "setApprovalForAll(address,bool)": {
        "details": "See {IERC721-setApprovalForAll}."
      },
      "supportsInterface(bytes4)": {
        "details": "See {IERC165-supportsInterface}."
      },
      "symbol()": {
        "details": "See {IERC721Metadata-symbol}."
      },
      "tokenURI(uint256)": {
        "details": "See {IERC721Metadata-tokenURI}."
      },
      "transferFrom(address,address,uint256)": {
        "details": "See {IERC721-transferFrom}."
      },
      "transferOwnership(address)": {
        "details": "Transfers ownership of the contract to a new account (`newOwner`). Can only be called by the current owner."
      }
    },
    "version": 1
  },
  "userdoc": {
    "kind": "user",
    "methods": {},
    "version": 1
  }
}